:020000040000FA
:0600000078EF35F012005C
:0600080004EF04F01200F9
:060018000CEF04F01200E1
:0608000078EF35F0120054
:020806001200DE
:06080800C6EF2CF0120007
:02080E000000E8
:0108100008DF
:0608180073EF2DF0120049
:02081E000500D3
:10082000606B0000600000004A000000476B0000A1
:10083000AA000000190000003E6B0000D800000074
:100840000900000010080000EA000000010000009C
:0C0850000E080000E8000000020000009C
:04085C00D9CFE6FF0B
:10086000E1CFD9FF040EE126020EDB6A030EDB6A3C
:10087000020EDBCF14F0030EDBCF15F0FD0EDBCF45
:1008800016F0FE0EDBCF17F01650145C17501558FB
:1008900016E2DE6ADD6ADECF14F0DDCF15F06C0EF5
:1008A000145C220E155805E2DF2A010E01E3DB2A53
:1008B000F2D7020EDB2A030E01E3DB2AD9D7040E9E
:1008C000E15C02E2E16AE552E16EE552E7CFD9FF71
:1008D0001200D9CFE6FFE1CFD9FF130EE126086A57
:1008E000096A080E08C0DBFF090E09C0DBFF060E0F
:1008F00008C0DBFF070E09C0DBFF040E08C0DBFFEA
:10090000050E09C0DBFF020E08C0DBFF030E09C0A5
:10091000DBFF110E08C0DBFF0F0EDB6A100EDB6A77
:10092000DE52010EDD6E300EE76E020EDBCF14F0EC
:10093000030EDBCF15F0E7501426000E15220A0E29
:1009400014C0DBFF300EE76E040EDBCF14F0050E93
:10095000DBCF15F0E7501426000E15220B0E14C045
:10096000DBFF300EE76E060EDBCF14F0070EDBCF99
:1009700015F0E7501426000E15220C0E14C0DBFFF4
:10098000300EE76E080EDBCF14F0090EDBCF15F04A
:10099000E7501426000E15220D0E14C0DBFF0E0EBC
:1009A000DB6ADF6A010EE66E02EC25F0E552010E0D
:1009B000E66E060EE66E24EC25F0E552E552430E97
:1009C000E66E660EE66E40EC25F0E552E552020E4C
:1009D000E66E060EE66E24EC25F0E552E552D9509F
:1009E0000A0FE66E000EDA20E66EEBEC25F0E5521B
:1009F000E552020EE66E010EDB50050FE66E24ECAA
:100A000025F0E552E5520F0EE66E02EC25F0E552B8
:100A10001C0E8114E76E120EE7CFDBFFCAEC15F057
:100A2000120EDB50180801E099D0010EDB2A020EED
:100A3000E66E010EDB50050FE66E24EC25F0E55264
:100A4000E5520F0EE66E02EC25F0E5521C0E811405
:100A5000E76E120EE7CFDBFF120EDB501808F6E050
:100A6000010EDB50040871E20C0EE66E02EC25F07C
:100A7000E552020EDBCF1AF0030EDBCF1BF0E80EBF
:100A80001B02F3CF1BF0030E1A02F3501B26E80ED5
:100A90001A02F3CF1AF0F4501B26640E086E096A8E
:100AA000040EDBCF0DF0050EDBCF0EF0B2EC33F011
:100AB0001A500624186E1B500720196E0A0E086E75
:100AC000096A060EDBCF0DF0070EDBCF0EF0B2EC9D
:100AD00033F018500624166E19500720176E080EB2
:100AE000DB501624146E090EDB501720156E0F0E06
:100AF00014C0DBFF100E15C0DBFFDE52010EDD6EF1
:100B0000D9500F0FE96EDACFEAFF8F0EEE1802E12F
:100B1000120EED1803E1010EDF6E17D0010EE66E26
:100B200002EC25F0E552800EE66E02EC25F0E5526F
:100B30003E0EE66E660EE66E84EC25F0E552E5525A
:100B40002BEC15F02BEC15F0EBD6110EDB6A010E39
:100B5000E66EE66A83DEE552E55282D1120EDB5084
:100B60000C0801E0AFD0110EDB2A110EDBCF14F020
:100B7000090EE76E1418E8AE02D0143403D0E75023
:100B8000D880145402E2110EDB6A1C0E8114E76E49
:100B9000120EE7CFDBFF120EDB500C08F6E0010E61
:100BA000DB50040A43E0070A2DE0010A17E0030ABC
:100BB00001E050D0110EDBCF14F0156A14BE156899
:100BC000020E14C0DBFF030E15C0DBFF110EDB505D
:100BD000300FE76E0A0EE7CFDBFF42D0110EDBCFFE
:100BE00014F0156A14BE1568040E14C0DBFF050E60
:100BF00015C0DBFF110EDB50300FE76E0B0EE7CF99
:100C0000DBFF2ED0110EDBCF14F0156A14BE156871
:100C1000060E14C0DBFF070E15C0DBFF110EDB5004
:100C2000300FE76E0C0EE7CFDBFF1AD0110EDBCFD3
:100C300014F0156A14BE1568080E14C0DBFF090E07
:100C400015C0DBFF110EDB50300FE76E0D0EE7CF46
:100C5000DBFF06D0DE52010EDD6E0E0EDB6A00D029
:100C60000C0EE66E02EC25F0E552C00EE66E02ECCC
:100C700025F0E552020EE66E060EE66E24EC25F037
:100C8000E552E552D9500A0FE66E000EDA20E66E04
:100C9000EBEC25F0E552E552020EE66E010EDB505C
:100CA000050FE66E24EC25F0E552E5520F0EE66ED8
:100CB00002EC25F0E552010EE66EE66ACFDDE55264
:100CC000E552CED0120EDB50140801E0A9D0110E6F
:100CD000DB06110EDBCF14F0143405E3090EF36EBE
:100CE000110EF3CFDBFF1C0E8114E76E120EE7CF5F
:100CF000DBFF120EDB501408F6E0010EDB50040A95
:100D000043E0070A2DE0010A17E0030A01E050D092
:100D1000110EDBCF14F0156A14BE1568020E14C054
:100D2000DBFF030E15C0DBFF110EDB50300FE76E4B
:100D30000A0EE7CFDBFF42D0110EDBCF14F0156AAD
:100D400014BE1568040E14C0DBFF050E15C0DBFFD2
:100D5000110EDB50300FE76E0B0EE7CFDBFF2ED00E
:100D6000110EDBCF14F0156A14BE1568060E14C000
:100D7000DBFF070E15C0DBFF110EDB50300FE76EF7
:100D80000C0EE7CFDBFF1AD0110EDBCF14F0156A83
:100D900014BE1568080E14C0DBFF090E15C0DBFF7A
:100DA000110EDB50300FE76E0D0EE7CFDBFF06D0E4
:100DB000DE52010EDD6E02D00E0EDB6A0C0EE66E08
:100DC00002EC25F0E552C00EE66E02EC25F0E5528D
:100DD000020EE66E060EE66E24EC25F0E552E552B4
:100DE000D9500A0FE66E000EDA20E66EEBEC25F025
:100DF000E552E552020EE66E010EDB50050FE66E7F
:100E000024EC25F0E552E5520F0EE66E02EC25F0DB
:100E1000E552010EE66EE66A21DDE552E55220D08C
:100E2000120EDB5004081CE1010EDB2A020EE66EF6
:100E3000010EDB50050FE66E24EC25F0E552E5527D
:100E40000F0EE66E02EC25F0E5521C0E8114E76EE3
:100E5000120EE7CFDBFF120EDB501808F6E0FF00A2
:100E6000DF5001E1D5D500D0130EE15C02E2E16A6A
:100E7000E552E16EE552E7CFD9FF1200D9CFE6FF88
:100E8000E1CFD9FFE652DF6AE66A700EE66E6A0EBF
:100E9000E66E156ADF34FE0B1536146EFC0EDB5061
:100EA0001424E96EFD0EDB501520EA6EEECFE6FF4E
:100EB000EFCFE6FF010EE66EEAEC1EF0166E060EB0
:100EC000E15E165081A4FED781B827D0DF2AFE0E3E
:100ED000DB50DF5C01E1DF6AE66A700EE66E6A0EE7
:100EE000E66E156ADF34FE0B1536146EFC0EDB5011
:100EF0001424E96EFD0EDB501520EA6EEECFE6FFFE
:100F0000EFCFE6FF010EE66EEAEC1EF0166E060E5F
:100F1000E15E165081A8FED76BD081B628D0DF5095
:100F200002E0DF0603D0FE0EDB04DF6EE66A700E21
:100F3000E66E6A0EE66E156ADF34FE0B1536146E29
:100F4000FC0EDB501424E96EFD0EDB501520EA6E1A
:100F5000EECFE6FFEFCFE6FF010EE66EEAEC1EF005
:100F6000166E060EE15E165081A6FED741D081B402
:100F70003FD081A4FED7FE0EDB04DF5C02E13BD054
:100F800017D0176ADF34FE0B1736166EFA0EDB50D9
:100F90001624E96EFB0EDB501720EA6EEECF14F03C
:100FA000EFCF15F004D015C0FAFF1450F96EFBDF37
:100FB000E66A700EE66E6A0EE66E156ADF34FE0BA8
:100FC0001536146EFC0EDB501424E96EFD0EDB505A
:100FD0001520EA6EEECFE6FFEFCFE6FF010EE66EDC
:100FE000EAEC1EF0166E060EE15E165081A4FED7E6
:100FF000CAEC15F069D7E552E552E7CFD9FF1200E8
:10100000D9CFE6FFE1CFD9FF220EE126050EDB6A3C
:10101000060EDB6A070EDB6A080EDB6A090EDB6A66
:101020000A0EDB6A0B0EDB6A0C0EDB6A0D0EDB6848
:10103000030EF36E0E0EF3CFDBFF0F0EDB6A100E06
:10104000DB6A81A41FEF0DF0070EDB6A080EDB6A76
:10105000DF6ADFCF14F00A0EE76E1418E8AE02D094
:10106000E73402D0E750145C1DE2FE0EDBCFE6FF52
:10107000A1EC16F0E552050EF3CFDBFF060EF4CF20
:10108000DBFF050EDBCF14F0060EDBCF15F0D950D9
:10109000070FE96EDACFEAFF1450EE261550ED2265
:1010A000DF2AD7D70A0E146E156A070EDBCF08F0B9
:1010B000080EDBCF09F014C00DF015C00EF052EC95
:1010C00035F0070E08C0DBFF080E09C0DBFF070E76
:1010D000DBCF14F0080EDBCF15F00F0EDBCF16F0D0
:1010E000100EDBCF17F01450165C155017580CE299
:1010F000070EDBCF08F0080EDBCF09F00F0E08C09B
:10110000DBFF100E09C0DBFF070EDBCF14F0080E6B
:10111000DBCF15F00D0EDBCF16F00E0EDBCF17F088
:101120001650145C175015580CE2070EDBCF08F070
:10113000080EDBCF09F00D0E08C0DBFF0E0E09C054
:10114000DBFF070EDBCF14F0080EDBCF15F000013C
:10115000E851145CE951155801E3F9D1E8C018F0E1
:10116000E9C019F01A6A1B6A070EDBCF1CF0080EE3
:10117000DBCF1DF01E6A1F6A1C50185C146E1D50D8
:101180001958156E1E501A58166E1F501B58176EA0
:101190000B0E14C0DBFF0C0E15C0DBFF0B0EDBCFFC
:1011A00006F00C0EDBCF07F0086A096AE80E0B6E3A
:1011B000030E0C6E0D6A0E6ADCEC34F002C006F011
:1011C00003C007F004C008F005C009F00B68030E67
:1011D0000C6E0D6A0E6A14EC35F00B0E06C0DBFFC8
:1011E0000C0E07C0DBFF200EF36E110EF3CFDBFFFA
:1011F0000B0EDBCF14F00C0EDBCF15F0640E0D6E72
:101200000E6A14C008F015C009F08CEC33F008C069
:1012100014F009C015F0300E1426000E1522120E1F
:1012200014C0DBFF0B0EDBCF14F00C0EDBCF15F080
:10123000640E0D6E0E6A14C008F015C009F052EC71
:1012400035F004C014F005C015F00A0E0D6E0E6ADC
:1012500014C008F015C009F052EC35F008C014F0C5
:1012600009C015F0300E1426000E1522130E14C0FE
:10127000DBFF0B0EDBCF14F00C0EDBCF15F00A0EEC
:101280000D6E0E6A14C008F015C009F052EC35F06E
:1012900004C014F005C015F0300E1426000E1522FF
:1012A000140E14C0DBFF200EF36E150EF3CFDBFF20
:1012B0007C0EF36E160EF3CFDBFF200EF36E170ECF
:1012C000F3CFDBFF0F0EDB500001E85D0001146E71
:1012D000100EDB500001E9590001156E0B0E14C011
:1012E000DBFF0C0E15C0DBFF0B0EDBCF06F00C0E88
:1012F000DBCF07F0086A096AE80E0B6E030E0C6E6E
:101300000D6A0E6ADCEC34F002C006F003C007F090
:1013100004C008F005C009F00B68030E0C6E0D6ADE
:101320000E6A14EC35F00B0E06C0DBFF0C0E07C086
:10133000DBFF0B0EDBCF14F00C0EDBCF15F0640ED1
:101340000D6E0E6A14C008F015C009F08CEC33F075
:1013500008C014F009C015F0300E1426000E152236
:10136000180E14C0DBFF0B0EDBCF14F00C0EDBCF1E
:1013700015F0640E0D6E0E6A14C008F015C009F069
:1013800052EC35F004C014F005C015F00A0E0D6ED5
:101390000E6A14C008F015C009F052EC35F008C010
:1013A00014F009C015F0300E1426000E1522190E87
:1013B00014C0DBFF0B0EDBCF14F00C0EDBCF15F0EF
:1013C0000A0E0D6E0E6A14C008F015C009F052EC3A
:1013D00035F004C014F005C015F0300E1426000ED0
:1013E00015221A0E14C0DBFF200EF36E1B0EF3CF76
:1013F000DBFF7E0EF36E1C0EF3CFDBFF0D0EDB501A
:101400000001E85D0001146E0E0EDB500001E95989
:101410000001156E0B0E14C0DBFF0C0E15C0DBFFB8
:101420000B0EDBCF06F00C0EDBCF07F0086A096A63
:10143000E80E0B6E030E0C6E0D6A0E6ADCEC34F0D7
:1014400002C006F003C007F004C008F005C009F0B0
:101450000B68030E0C6E0D6A0E6A14EC35F00B0E61
:1014600006C0DBFF0C0E07C0DBFF200EF36E1D0E67
:10147000F3CFDBFF0B0EDBCF14F00C0EDBCF15F040
:10148000640E0D6E0E6A14C008F015C009F08CECE5
:1014900033F008C014F009C015F0300E1426000E09
:1014A00015221E0E14C0DBFF0B0EDBCF14F00C0E4A
:1014B000DBCF15F0640E0D6E0E6A14C008F015C077
:1014C00009F052EC35F004C014F005C015F00A0E16
:1014D0000D6E0E6A14C008F015C009F052EC35F01C
:1014E00008C014F009C015F0300E1426000E1522A5
:1014F0001F0E14C0DBFF0B0EDBCF14F00C0EDBCF86
:1015000015F00A0E0D6E0E6A14C008F015C009F031
:1015100052EC35F004C014F005C015F0300E14265E
:10152000000E1522200E14C0DBFF210EDB6AC00E58
:10153000E66E02EC25F0E552D950110FE66E000E72
:10154000DA20E66EEBEC25F0E552E5524FD2070EBD
:10155000DBCF14F0080EDBCF15F01450E85D15500A
:10156000E95901E315D2070EDBCF18F0080EDBCFE7
:1015700019F01A6A1B6AE8C01CF0E9C01DF01E6A67
:101580001F6A1C50185C146E1D501958156E1E50A1
:101590001A58166E1F501B58176E0B0E14C0DBFF27
:1015A0000C0E15C0DBFF0B0EDBCF06F00C0EDBCFF5
:1015B00007F0086A096AE80E0B6E030E0C6E0D6ADE
:1015C0000E6ADCEC34F002C006F003C007F004C081
:1015D00008F005C009F00B68030E0C6E0D6A0E6A68
:1015E00014EC35F00B0E06C0DBFF0C0E07C0DBFF62
:1015F000200EF36E110EF3CFDBFF0B0EDBCF14F0DA
:101600000C0EDBCF15F0640E0D6E0E6A14C008F0E0
:1016100015C009F08CEC33F008C014F009C015F0C7
:10162000300E1426000E1522120E14C0DBFF0B0E16
:10163000DBCF14F00C0EDBCF15F0640E0D6E0E6ACE
:1016400014C008F015C009F052EC35F004C014F0D5
:1016500005C015F00A0E0D6E0E6A14C008F015C014
:1016600009F052EC35F008C014F009C015F0300E46
:101670001426000E1522130E14C0DBFF0B0EDBCF59
:1016800014F00C0EDBCF15F00A0E0D6E0E6A14C0AE
:1016900008F015C009F052EC35F004C014F005C094
:1016A00015F0300E1426000E1522140E14C0DBFFA8
:1016B000200EF36E150EF3CFDBFF7C0EF36E160ECD
:1016C000F3CFDBFF200EF36E170EF3CFDBFF0D0E13
:1016D000DBCF18F00E0EDBCF19F01A6A1B6AE8C0D8
:1016E0001CF0E9C01DF01E6A1F6A1C50185C146EC5
:1016F0001D501958156E1E501A58166E1F501B5843
:10170000176E0B0E14C0DBFF0C0E15C0DBFF0B0EAB
:10171000DBCF06F00C0EDBCF07F0086A096AE80E93
:101720000B6E030E0C6E0D6A0E6ADCEC34F002C018
:1017300006F003C007F004C008F005C009F00B680C
:10174000030E0C6E0D6A0E6A14EC35F00B0E06C01B
:10175000DBFF0C0E07C0DBFF0B0EDBCF14F00C0E13
:10176000DBCF15F0640E0D6E0E6A14C008F015C0C4
:1017700009F08CEC33F008C014F009C015F0300EFD
:101780001426000E1522180E14C0DBFF0B0EDBCF43
:1017900014F00C0EDBCF15F0640E0D6E0E6A14C043
:1017A00008F015C009F052EC35F004C014F005C083
:1017B00015F00A0E0D6E0E6A14C008F015C009F07F
:1017C00052EC35F008C014F009C015F0300E1426A4
:1017D000000E1522190E14C0DBFF0B0EDBCF14F028
:1017E0000C0EDBCF15F00A0E0D6E0E6A14C008F059
:1017F00015C009F052EC35F004C014F005C015F026
:10180000300E1426000E15221A0E14C0DBFF200E17
:10181000F36E1B0EF3CFDBFF7E0EF36E1C0EF3CFC9
:10182000DBFF0F0EDBCF18F0100EDBCF19F01A6ABA
:101830001B6AE8C01CF0E9C01DF01E6A1F6A1C503C
:10184000185C146E1D501958156E1E501A58166EDD
:101850001F501B58176E0B0E14C0DBFF0C0E15C06B
:10186000DBFF0B0EDBCF06F00C0EDBCF07F0086AB8
:10187000096AE80E0B6E030E0C6E0D6A0E6ADCEC44
:1018800034F002C006F003C007F004C008F005C041
:1018900009F00B68030E0C6E0D6A0E6A14EC35F03D
:1018A0000B0E06C0DBFF0C0E07C0DBFF200EF36E35
:1018B0001D0EF3CFDBFF0B0EDBCF14F00C0EDBCFD6
:1018C00015F0640E0D6E0E6A14C008F015C009F014
:1018D0008CEC33F008C014F009C015F0300E14265B
:1018E000000E15221E0E14C0DBFF0B0EDBCF14F012
:1018F0000C0EDBCF15F0640E0D6E0E6A14C008F0EE
:1019000015C009F052EC35F004C014F005C015F014
:101910000A0E0D6E0E6A14C008F015C009F052ECE4
:1019200035F008C014F009C015F0300E1426000E72
:1019300015221F0E14C0DBFF0B0EDBCF14F00C0EB4
:10194000DBCF15F00A0E0D6E0E6A14C008F015C03C
:1019500009F052EC35F004C014F005C015F0300E5B
:101960001426000E1522200E14C0DBFF210EDB6AA8
:10197000C00EE66E02EC25F0E552D950110FE66E6E
:10198000000EDA20E66EEBEC25F0E552E5522ED0A3
:101990000B0EDB6A0C0EDB6A300EF36E110EF3CF0A
:1019A000DBFF300EF36E120EF3CFDBFF300EF36E63
:1019B000130EF3CFDBFF6D0EF36E140EF3CFDBFFD0
:1019C000410EF36E150EF3CFDBFF160EDB6AC00E71
:1019D000E66E02EC25F0E552D950110FE66E000ECE
:1019E000DA20E66EEBEC25F0E552E552FD0EDB5019
:1019F00024E0D9500B0FE96EDACFEAFF320ED8801F
:101A0000EE54000EED540BE30B0EDBCF14F00C0E76
:101A1000DBCF15F00A0E145C000E155806E28C9010
:101A20008C928C948C96010E0ED0FC0EDB5003E051
:101A3000FC0EDB0602D0000E06D021EF08F081A4D8
:101A4000FED7000E00D0146E220EE15C02E2E16AC5
:101A5000E552E16E1450E552E7CFD9FF12008150F4
:101A6000100B13E08150080B10E0E66AADEC14F0A7
:101A7000E5528C8A60EC15F0080EE66EADEC14F0C1
:101A8000E5528C9A60EC15F0EAD7E66AADEC14F0FA
:101A9000E55212006EEC30F0E66AADEC14F0E5525F
:101AA0008C8A60EC15F0080EE66EADEC14F0E55291
:101AB0008C9A60EC15F0F0D71200D9CFE6FFE1CF99
:101AC000D9FF040EE12682A464D0020EE66EA1ECDA
:101AD00016F0E552F3CFDEFFF4CFDDFFA7EC14F0F4
:101AE00060EC15F0020EE66EA1EC16F0E552020E67
:101AF000F3CFDBFF030EF4CFDBFFAAEC14F0DECF55
:101B000014F0DDCF15F0990E145C030E15580BE39D
:101B1000020EDBCF16F0030EDBCF17F0990E165C2A
:101B2000030E175817E2E66A810EE66E6A0EE66E3D
:101B3000320EE66E660EE66E010EE66EEAEC1EF002
:101B4000146E060EE15E14506EEC30F088DFF6EC99
:101B500013F0FF00FE0EDBCFE6FF010EE66E23D88A
:101B6000E552E552000915E0E66A0A0EE66E24EC3D
:101B700025F0E552E5522A0EE66E660EE66E40EC62
:101B800025F0E552E5526EEC30F069DFF6EC13F02B
:101B9000FF00040EE15C02E2E16AE552E16EE5520B
:101BA000E7CFD9FF1200D9CFE6FFE1CFD9FF110E61
:101BB000E126D9CFE9FFDACFEAFF530EEE6E2E0E03
:101BC000EE6E560EEE6E4D0EEE6E200EEE6E410E69
:101BD000EE6E430EEE6E570EEE6E200EEE6E500E53
:101BE000EE6E4F0EEE6E530EEE6E540EEE6EEE6A0D
:101BF000EE6AEE6A100EDB6AFE0EDB5002E1080EA2
:101C0000DB6AE66A000EE66EE66AD9CFE6FFDACF57
:101C1000E6FF010EE66E34EC1FF0146E060EE15E78
:101C20001450959095928C908C922BEC15F0E66A5E
:101C3000A1EC16F0E552F3CFE8F0F4CFE9F08C8098
:101C40008C922BEC15F0FD0EDBCFE6FFFE0EDBCF0A
:101C5000E6FFE66A00EC08F0E552E552E5520009BD
:101C600002E0010EABD08C908C922BEC15F0200E84
:101C7000F36E050EF3CFDBFFE66A000EE66EE66A52
:101C8000D9CFE6FFDACFE6FF010EE66E34EC1FF0A7
:101C9000146E060EE15E1450E66AA1EC16F0E552F1
:101CA000F3CFE8F0F4CFE9F08C908C822BEC15F0B8
:101CB000FD0EDBCFE6FFFE0EDBCFE6FFE66A00ECB3
:101CC00008F0E552E552E552000902E0010E76D037
:101CD0008C908C922BEC15F0010EE66EA1EC16F0B8
:101CE000E552F3CFE8F0F4CFE9F0959495968C8423
:101CF0008C96450EDF6E410EF36E050EF3CFDBFFC3
:101D0000E66A000EE66EE66AD9CFE6FFDACFE6FFB6
:101D1000010EE66E34EC1FF0146E060EE15E1450F8
:101D20002BEC15F0FD0EDBCFE6FFFE0EDBCFE6FF62
:101D3000010EE66E00EC08F0E552E552E5520009AE
:101D400002E0010E3BD08C948C962BEC15F0010E2A
:101D5000E66EA1EC16F0E552F3CFE8F0F4CFE9F02F
:101D6000200EF36E050EF3CFDBFFE66A000EE66E83
:101D7000E66AD9CFE6FFDACFE6FF010EE66E34EC75
:101D80001FF0146E060EE15E14508C948C862BECC2
:101D900015F0FD0EDBCFE6FFFE0EDBCFE6FF010EFA
:101DA000E66E00EC08F0E552E552E552000902E06B
:101DB000010E04D08C948C96000E00D0146E110E7F
:101DC000E15C02E2E16AE552E16E1450E552E7CFD0
:101DD000D9FF1200E66A000EE66EE66A1E0EE66E97
:101DE000660EE66E010EE66EEAEC1EF0146E060E4E
:101DF000E15E145082BA11D0E66A160EE66E660EE7
:101E0000E66E000EE66EE66AE66AEAEC1EF0146E16
:101E1000060EE15E145082AAFED782BAFED795EC78
:101E200015F0E66A0D0EE66E660EE66E000EE66EC4
:101E3000E66AE66AEAEC1EF0146E060EE15E1450E5
:101E400082AAFED7E66A040EE66E660EE66E000E05
:101E5000E66EE66AE66AEAEC1EF0146E060EE15ED5
:101E600014502BEC15F02BEC15F081B4FED781A4A7
:101E7000FED7E66AE66A97DEE552E55201D0AAD7B8
:101E80001200D9CFE6FFE1CFD9FFE652DF6AE66A5A
:101E9000B4EC2CF0E55281EC27F00001D8514CE075
:101EA000E66A000EE66EE66AFF0EE66E650EE66E08
:101EB000010EE66EEAEC1EF0146E060EE15E1450A2
:101EC000180EE66EB4EC2CF0E5528150100B03E1D5
:101ED0008150080B30E09EAA2DD09E9AAE50DF6E46
:101EE000520EDF5C12E1020EE66E000EE66EE66A4E
:101EF000FC0EE66E650EE66E010EE66EEAEC1EF076
:101F0000146E060EE15E145016D0540EDF5C12E122
:101F1000020EE66E000EE66EE66AF60EE66E650EE0
:101F2000E66E010EE66EEAEC1EF0146E060EE15E41
:101F3000145001D0CAD710D0E66A000EE66EE66AE9
:101F4000F30EE66E650EE66E010EE66EEAEC1EF02E
:101F5000146E060EE15E14502BEC15F0E552E552BE
:101F6000E7CFD9FF1200D9CFE6FFE1CFD9FF040EAA
:101F7000E126DE6ADD6A020EDB6A030EDB6AAAEC8A
:101F800014F0E66A000EE66EE66AE90EE66E650E8D
:101F9000E66E010EE66EEAEC1EF0146E060EE15ED1
:101FA0001450190E0001AA6FAB6B8C9CDE6ADD6ABF
:101FB000DECF14F0DDCF15F0190E145C000E1558AD
:101FC00024E2E3EC1CF00001AA07000EAB5B020E5A
:101FD000E66EA1EC16F0E552F3CF14F0F4CF15F055
:101FE00014C0E6FF15C0E6FF39EC1DF0E552E552DE
:101FF0000001CC0ED880AC55020EAD5501E305D0E2
:10200000DF2A010E01E3DB2AD3D78C8CD9CFE9FF7D
:10201000DACFEAFF190EEE1801E1ED5025E1E66A8C
:10202000000EE66EE66A8C0EE66E6A0EE66E010E35
:10203000E66EEAEC1EF0146E060EE15E145081A40A
:1020400012D0020EE66EA1EC16F0E552F3CF14F0BA
:10205000F4CF15F014C0E6FF15C0E6FF39EC1DF013
:10206000E552E552ECD7E0D02BEC15F0020EE66E0F
:10207000A1EC16F0E552020EF3CFDBFF030EF4CF16
:10208000DBFF020EE66EA1EC16F0E552020EF3CF76
:10209000DBFF030EF4CFDBFFD950020FE96EDACF7E
:1020A000EAFFFF0ED880EE54020EED5425E2E66AF8
:1020B000000EE66EE66A8C0EE66E6A0EE66E010EA5
:1020C000E66EEAEC1EF0146E060EE15E145081A47A
:1020D00012D0020EE66EA1EC16F0E552F3CF14F02A
:1020E000F4CF15F014C0E6FF15C0E6FF39EC1DF083
:1020F000E552E552ECD798D0050E0001AA6FAB6B04
:10210000DE6ADD6ADECF14F0DDCF15F0050E145C5B
:10211000000E15581CE22BEC15F0020EE66EA1EC39
:1021200016F0E552F3CF14F0F4CF15F014C0E6FF2B
:1021300015C0E6FF39EC1DF0E552E5520001AA0793
:10214000000EAB5BDF2A010E01E3DB2ADBD7020EB8
:10215000E66EA1EC16F0E552F3CFACF0F4CFADF0A3
:10216000020EE66EA1EC16F0E552F3CFACF0F4CF20
:10217000ADF0030EE76E020EDBCF14F0030EDBCFE3
:1021800015F0E7501426000E15220001AC51145C26
:10219000AD51155825E2E66A000EE66EE66A8C0E31
:1021A000E66E6A0EE66E010EE66EEAEC1EF0146E46
:1021B000060EE15E145081A412D0020EE66EA1EC70
:1021C00016F0E552F3CF14F0F4CF15F014C0E6FF8B
:1021D00015C0E6FF39EC1DF0E552E552ECD724D0EE
:1021E000E66A000EE66EE66ADE0EE66E650EE66EE6
:1021F000010EE66EEAEC1EF0146E060EE15E14505F
:1022000081A412D0020EE66EA1EC16F0E552F3CFD7
:1022100014F0F4CF15F014C0E6FF15C0E6FF39EC5A
:102220001DF0E552E552ECD7020EE66EA1EC16F079
:10223000E552F3CFACF0F4CFADF00001990EAC5DF8
:10224000030EAD5916E28C8A020EE66E810EE66E22
:102250006A0EE66E8C0EE66E6A0EE66E010EE66E95
:10226000EAEC1EF0146E060EE15E14508C9A81B4F6
:10227000FED7E66A000EE66EE66AD40EE66E650EDE
:10228000E66E010EE66EEAEC1EF0146E060EE15EDE
:102290001450190E0001AA6FAB6BA7EC14F08C9CC4
:1022A000DE6ADD6ADECF14F0DDCF15F0190E145CA6
:1022B000000E155824E2E3EC1CF00001AA07000E02
:1022C000AB5B020EE66EA1EC16F0E552F3CF14F014
:1022D000F4CF15F014C0E6FF15C0E6FF39EC1DF091
:1022E000E552E5520001CC0ED880AC55020EAD553A
:1022F00001E305D0DF2A010E01E3DB2AD3D78C8C62
:10230000D9CFE9FFDACFEAFF190EEE1801E1ED505F
:1023100025E1E66A000EE66EE66A980EE66E6A0E43
:10232000E66E010EE66EEAEC1EF0146E060EE15E3D
:10233000145081A412D0020EE66EA1EC16F0E55204
:10234000F3CF14F0F4CF15F014C0E6FF15C0E6FF8C
:1023500039EC1DF0E552E552ECD7E0D02BEC15F04E
:10236000020EE66EA1EC16F0E552020EF3CFDBFF93
:10237000030EF4CFDBFF020EE66EA1EC16F0E55281
:10238000020EF3CFDBFF030EF4CFDBFFD950020FB9
:10239000E96EDACFEAFFFF0ED880EE54020EED545C
:1023A00025E2E66A000EE66EE66A980EE66E6A0EB2
:1023B000E66E010EE66EEAEC1EF0146E060EE15EAD
:1023C000145081A412D0020EE66EA1EC16F0E55274
:1023D000F3CF14F0F4CF15F014C0E6FF15C0E6FFFC
:1023E00039EC1DF0E552E552ECD798D0050E00010E
:1023F000AA6FAB6BDE6ADD6ADECF14F0DDCF15F0BD
:10240000050E145C000E15581CE22BEC15F0020EA4
:10241000E66EA1EC16F0E552F3CF14F0F4CF15F010
:1024200014C0E6FF15C0E6FF39EC1DF0E552E55299
:102430000001AA07000EAB5BDF2A010E01E3DB2AD5
:10244000DBD7020EE66EA1EC16F0E552F3CFACF04E
:10245000F4CFADF0020EE66EA1EC16F0E552F3CF2C
:10246000ACF0F4CFADF0030EE76E020EDBCF14F04C
:10247000030EDBCF15F0E7501426000E15220001E5
:10248000AC51145CAD51155825E2E66A000EE66EBB
:10249000E66A980EE66E6A0EE66E010EE66EEAECED
:1024A0001EF0146E060EE15E145081A412D0020ECE
:1024B000E66EA1EC16F0E552F3CF14F0F4CF15F070
:1024C00014C0E6FF15C0E6FF39EC1DF0E552E552F9
:1024D000ECD724D0E66A000EE66EE66AC90EE66E18
:1024E000650EE66E010EE66EEAEC1EF0146E060E48
:1024F000E15E145081A412D0020EE66EA1EC16F03B
:10250000E552F3CF14F0F4CF15F014C0E6FF15C078
:10251000E6FF39EC1DF0E552E552ECD78C8C020E4B
:10252000E66EA1EC16F0E552F3CFACF0F4CFADF0CF
:102530000001990EAC5D030EAD5916E28C8A020EB5
:10254000E66E810EE66E6A0EE66E980EE66E6A0E16
:10255000E66E010EE66EEAEC1EF0146E060EE15E0B
:1025600014508C9A81B4FED7AAEC14F0040EE15CEE
:1025700002E2E16AE552E16EE552E7CFD9FF1200CF
:1025800069EC04F00001E10503E1AEEC26F002D0B5
:1025900079EC26F0120069EC04F00001E20503E199
:1025A00018EC27F002D0E2EC26F01200D9CFE6FFBB
:1025B000E1CFD9FF110EE126D950010FE96EDACF34
:1025C000EAFF560EEE6E410EEE6E4C0EEE6E550E9E
:1025D000EE6E450EEE6E3D0EEE6E200EEE6EEE6E63
:1025E000EE6EEE6EEE6AEE6AEE6AEE6AEE6AEE6A23
:1025F000E66A000EE66EE66AB90EE66E650EE66EF7
:10260000010EE66EEAEC1EF0146E060EE15E14504A
:10261000010EE66EC4EC14F0E5520001E66FE6C070
:10262000DFFF0A0E146E14C00EF0DFCF09F086EC47
:1026300035F00950300FE76E080EE7CFDBFF0A0ECA
:10264000146E14C00EF0DFCF09F086EC35F00550A3
:10265000300FE76E090EE7CFDBFFE66AD950010FB6
:10266000E66E000EDA20E66E000EE66EE66AE66AB8
:1026700034EC1FF0146E060EE15E145081A4FED7F8
:1026800060EC15F081B836D0DF50000801E2DF06BB
:102690000A0E146E14C00EF0DFCF09F086EC35F090
:1026A0000950300FE76E080EE7CFDBFF0A0E146EFD
:1026B00014C00EF0DFCF09F086EC35F00550300F76
:1026C000E76E090EE7CFDBFFE66AD950010FE66E31
:1026D000000EDA20E66E000EE66EE66AE66A34EC7C
:1026E0001FF0146E060EE15E1450CAEC15F095EC66
:1026F00015F0C8D781B636D0280EDF5C01E2DF2A9C
:102700000A0E146E14C00EF0DFCF09F086EC35F01F
:102710000950300FE76E080EE7CFDBFF0A0E146E8C
:1027200014C00EF0DFCF09F086EC35F00550300F05
:10273000E76E090EE7CFDBFFE66AD950010FE66EC0
:10274000000EDA20E66E000EE66EE66AE66A34EC0B
:102750001FF0146E060EE15E1450CAEC15F095ECF5
:1027600015F0C8D781B48ED7E66A000EE66EE66A29
:10277000B30EE66E650EE66EE66AEAEC1EF0146EC7
:10278000060EE15E145081A4FED760EC15F0815076
:10279000100B20E18150080B1DE1E66A000EE66E89
:1027A000E66AFC0EE66E650EE66E010EE66EEAEC7B
:1027B0001EF0146E060EE15E1450010EE66EDFCFC1
:1027C000E6FFDAEC14F0E552E552DFCFE6F02BEC51
:1027D00015F002D081B4DBD7110EE15C02E2E16AB0
:1027E000E552E16EE552E7CFD9FF1200D9CFE6FFFF
:1027F000E1CFD9FF1B0EE126070EDF6ED950010F86
:10280000E96EDACFEAFFAB0EEE6E650EED6ED950D3
:10281000030FE96EDACFEAFFA20EEE6E650EED6EE3
:10282000D950050FE96EDACFEAFF940EEE6E650E11
:10283000ED6ED950070FE96EDACFEAFF910EEE6E1A
:10284000650EED6ED950090FE96EDACFEAFF8C0EF6
:10285000EE6E650EED6ED9500B0FE96EDACFEAFF22
:10286000840EEE6E650EED6ED9500D0FE96EDACF67
:10287000EAFF7F0EEE6E650EED6ED9500F0FE96E1A
:10288000DACFEAFF660EEE6E1F0EED6ED950110F15
:10289000E96EDACFEAFFD40EEE6E1D0EED6ED95062
:1028A000130FE96EDACFEAFFAC0EEE6E250EED6E79
:1028B000D950150FE96EDACFEAFF960EEE6E250EAF
:1028C000ED6ED950170FE96EDACFEAFF800EEE6E8B
:1028D000250EED6ED950190FE96EDACFEAFF820EA0
:1028E000EE6E1E0EED6EF098E66A000EE66EE66A7B
:1028F0007A0EE66E650EE66E010EE66EEAEC1EF0EE
:10290000146E060EE15E14502BEC15F081A6FED776
:10291000D9500F0FE66E000EDA20E66ED950010F87
:10292000E66E000EDA20E66EDFCFE6FF3EEC07F043
:10293000146E050EE15E1450FF001B0EE15C02E216
:0E294000E16AE552E16EE552E7CFD9FF1200E1
:02294E008D8278
:10295000FFEF15F08D92FFEF15F0D9CFE6FFE1CF35
:10296000D9FF9EEC24F0720EE66EB0EC24F0E55236
:10297000FE0EDBCFE6FFB0EC24F0E552AAEC24F02B
:10298000E552E7CFD9FF1200D9CFE6FFE1CFD9FF5B
:10299000E652FE0EDB50A96E3F0EA616A680A6B02C
:1029A000FED7A850DF6EDF5000D0E552E552E7CFEA
:1029B000D9FF1200D9CFE6FFE1CFD9FFFD0EDB50E2
:1029C000A96EFE0EDB50A86E3F0EA616A684F29EE0
:1029D000550EA76EAA0EA76EA682F28EA6BAFED7D5
:1029E0000ED9A694E552E7CFD9FF1200D9CFE6FF62
:1029F000E1CFD9FF040EE126020EDB6A030EDB6A8B
:102A0000020EDBCF14F0030EDBCF15F01E0E145CAC
:102A1000000E155816E2DE6ADD6ADECF14F0DDCF57
:102A200015F0490E145C000E155805E2DF2A010E60
:102A300001E3DB2AF2D7020EDB2A030E01E3DB2AD5
:102A4000DFD7040EE15C02E2E16AE552E16EE55295
:102A5000E7CFD9FF1200D9CFE6FFE1CFD9FF040EAF
:102A6000E126020EDB6A030EDB6A020EDBCF14F0F6
:102A7000030EDBCF15F0500E145C000E155816E255
:102A8000DE6ADD6ADECF14F0DDCF15F0FC0E145CDB
:102A9000260E155805E2DF2A010E01E3DB2AF2D7E4
:102AA000020EDB2A030E01E3DB2ADFD7040EE15C12
:102AB00002E2E16AE552E16EE552E7CFD9FF12008A
:102AC000D9CFE6FFE1CFD9FF040EE126020EDB6A83
:102AD000030EDB6A020EDBCF14F0030EDBCF15F022
:102AE0001C0E145C000E155816E2DE6ADD6ADECF9D
:102AF00014F0DDCF15F0C00E145C260E155805E25B
:102B0000DF2A010E01E3DB2AF2D7020EDB2A030ED5
:102B100001E3DB2ADFD7040EE15C02E2E16AE55261
:102B2000E16EE552E7CFD9FF1200D9CFE6FFE1CF42
:102B3000D9FF040EE126020EDB6A030EDB6A020EE9
:102B4000DBCF14F0030EDBCF15F00E0E145C000E7D
:102B5000155816E2DE6ADD6ADECF14F0DDCF15F01F
:102B6000C00E145C260E155805E2DF2A010E01E3A3
:102B7000DB2AF2D7020EDB2A030E01E3DB2ADFD7C2
:102B8000040EE15C02E2E16AE552E16EE552E7CF54
:102B9000D9FF1200D9CFE6FFE1CFD9FF040EE1261D
:102BA000020EDB6A030EDB6A020EDBCF14F0030EAB
:102BB000DBCF15F0060E145C000E155816E2DE6A27
:102BC000DD6ADECF14F0DDCF15F0310E145C240E7B
:102BD000155805E2DF2A010E01E3DB2AF2D7020EC7
:102BE000DB2A030E01E3DB2ADFD7040EE15C02E2FD
:102BF000E16AE552E16EE552E7CFD9FF1200D9CF85
:102C0000E6FFE1CFD9FF040EE126020EDB6A030ED8
:102C1000DB6A020EDBCF14F0030EDBCF15F0145C81
:102C2000000E155816E2DE6ADD6ADECF14F0DDCF45
:102C300015F0280E145C230E155805E2DF2A010E4C
:102C400001E3DB2AF2D7020EDB2A030E01E3DB2AC3
:102C5000E0D7040EE15C02E2E16AE552E16EE55282
:102C6000E7CFD9FF1200D9CFE6FFE1CFD9FF040E9D
:102C7000E126020EDB6A030EDB6A020EDBCF14F0E4
:102C8000030EDBCF15F0145C000E155816E2DE6A59
:102C9000DD6ADECF14F0DDCF15F0410E145C000EBE
:102CA000155805E2DF2A010E01E3DB2AF2D7020EF6
:102CB000DB2A030E01E3DB2AE0D7040EE15C02E22B
:102CC000E16AE552E16EE552E7CFD9FF1200D9CFB4
:102CD000E6FFE1CFD9FF040EE126020EDB6A030E08
:102CE000DB6A020EDBCF14F0030EDBCF15F0145CB1
:102CF000000E155816E2DE6ADD6ADECF14F0DDCF75
:102D000015F0B40E145C000E155805E2DF2A010E12
:102D100001E3DB2AF2D7020EDB2A030E01E3DB2AF2
:102D2000E0D7040EE15C02E2E16AE552E16EE552B1
:102D3000E7CFD9FF12000B0EC16E350EC06EC26A0E
:102D40001200D9CFE6FFE1CFD9FF100EE126DE6AEF
:102D5000DD6A020EDB6A030EDB6A040EDB6A050E17
:102D6000DB6A060EDB6A070EDB6A080EDB6A090EF9
:102D7000DB6A140EF36E0A0EF3CFDBFF0B0EDB6A79
:102D80000C0EDB6A0D0EDB6A0E0EDB6A0F0EDB6AC1
:102D9000FE0EDB50040A15E0070A10E0010A0BE002
:102DA000030A06E0010A01E00FD0010EC26E0CD04A
:102DB000050EC26E09D0090EC26E06D00D0EC26E8F
:102DC00003D0110EC26E00D0060EDBCF14F0070E3A
:102DD000DBCF15F00A0EDBCF16F00B0EDBCF17F0B2
:102DE0001650145C175015586FE2060EDB2A070EBA
:102DF00001E3DB2AC2820000C2B2FED7C450DE6EFD
:102E0000DD6AC350E66ED950020FE96EDACFEAFFF1
:102E1000E552E750EE6EED6ADECF14F0DDCF15F02F
:102E2000D89014361536D8901436153614C0DEFFF7
:102E300015C0DDFF020EDBCF14F0030EDBCF15F063
:102E4000060ED89015321432E804FBE1020E14C0CD
:102E5000DBFF030E15C0DBFF020EDBCF16F0030E07
:102E6000DBCF17F0DE501610146EDD501710156E04
:102E7000040E14C0DBFF050E15C0DBFF040EDBCF14
:102E800014F0050EDBCF15F0166A176AD9500C0F37
:102E9000E96EDACFEAFFEE501426EE501522EE501E
:102EA0001622EE5017220C0E14C0DBFF0D0E15C0BB
:102EB000DBFF0E0E16C0DBFF0F0E17C0DBFF00009E
:102EC00000000000000080D70A0EDBCF14F00B0ECC
:102ED000DBCF15F0166A176A14C00BF015C00CF0A2
:102EE00016C00DF017C00EF00C0EDBCF06F00D0E65
:102EF000DBCF07F00E0EDBCF08F00F0EDBCF09F0B3
:102F000014EC35F0080E06C0DBFF090E07C0DBFF2E
:102F1000080EDBCF14F0090EDBCF15F014C0F3FF61
:102F200015C0F4FF00D0100EE15C02E2E16AE55248
:102F3000E16EE552E7CFD9FF1200D9CFE6FFE1CF2E
:102F4000D9FF040EE1260001D80508E1280EE66E3F
:102F5000640EE66E69EC2CF0E552E5529590959280
:102F60008C808C924CDE4BDEDE6ADD6ADECF14F0A4
:102F7000DDCF15F02C0E145C010E15582EE23FDE4D
:102F8000E66ADFDEE552020EF3CFDBFF030EF4CF7D
:102F9000DBFF0001D80510E1020EDBCFE6FF030ED8
:102FA000DBCFE6FFDECFE6FFDDCFE6FF1CEC2BF04C
:102FB000E552E552E552E552D950020FE96EDACFFB
:102FC000EAFF5C0ED880EE54030EED5401E205D00A
:102FD000DF2A010E01E3DB2AC9D78C908BEC2CF0A1
:102FE000D9CFE9FFDACFEAFF2C0EEE1802E1010E8D
:102FF000ED1833E18C8AE66A62C0E6FF63C0E6FF43
:10300000000EE66EE66AE66AEAEC1EF0146E060E44
:10301000E15E1450C1EC2CF062C0E6FF63C0E6FF35
:1030200069EC2CF0E552E55216DD15DD14DD8C9AC5
:10303000C30EE96E000EEA6EEE52EE52EF500F0B29
:10304000E82AF36EF3500F0BF36EF46EF00EEF14EC
:10305000F310EF6EF450010E07D00001C591C59337
:10306000C595C597000E00D0146E040EE15C02E217
:10307000E16AE552E16E1450E552E7CFD9FF120044
:10308000D9CFE6FFE1CFD9FF040EE1260001D80534
:1030900008E11E0EE66E640EE66E69EC2CF0E55259
:1030A000E552959095928C908C82A9DDA8DDDE6A20
:1030B000DD6ADECF14F0DDCF15F02C0E145C010EAE
:1030C00015582EE29CDDE66A3CDEE552020EF3CF97
:1030D000DBFF030EF4CFDBFF0001D80510E1020E89
:1030E000DBCFE6FF030EDBCFE6FFDECFE6FFDDCF73
:1030F000E6FF1CEC2BF0E552E552E552E552020EDC
:10310000DBCF14F0030EDBCF15F0510E145C020E72
:10311000155801E205D0DF2A010E01E3DB2AC9D7E9
:103120008C928BEC2CF0D9CFE9FFDACFEAFF2C0E92
:10313000EE1802E1010EED183AE18C8AE66A60C0F1
:10314000E6FF61C0E6FF000EE66EE66AE66AEAECBC
:103150001EF0146E060EE15E1450C1EC2CF060C03F
:10316000E6FF61C0E6FF69EC2CF0E552E55273DC46
:1031700072DC71DC8C9AC30EE96E000EEA6EEE52C0
:10318000EF50F00BE842E842E842E842E82AF36EEA
:10319000F3500F0BF36EF46EF346F346F346F3462B
:1031A0000F0EEF14F310EF6EF450010E07D0000174
:1031B000C499C49BC49DC49F000E00D0146E040E1D
:1031C000E15C02E2E16AE552E16E1450E552E7CFBC
:1031D000D9FF1200D9CFE6FFE1CFD9FF040EE126D7
:1031E0000001D80508E1130EE66E640EE66E69EC88
:1031F0002CF0E552E552959495968C848C96FFDCE4
:10320000FEDCDE6ADD6ADECF14F0DDCF15F02C0EB9
:10321000145C010E15582FE2F2DC010EE66E91DD12
:10322000E552020EF3CFDBFF030EF4CFDBFF00010C
:10323000D80510E1020EDBCFE6FF030EDBCFE6FF81
:10324000DECFE6FFDDCFE6FF1CEC2BF0E552E552CA
:10325000E552E552D950020FE96EDACFEAFF5C0E73
:10326000D880EE54030EED5401E205D0DF2A010EA2
:1032700001E3DB2AC8D78C948BEC2CF0D9CFE9FF83
:10328000DACFEAFF2C0EEE1802E1010EED1837E15D
:103290008C8AE66A66C0E6FF67C0E6FF000EE66E4F
:1032A000E66AE66AEAEC1EF0146E060EE15E145061
:1032B000C1EC2CF066C0E6FF67C0E6FF69EC2CF0BD
:1032C000E552E5522BEC15F02BEC15F02BEC15F03C
:1032D0008C9AC30EE96E000EEA6EEE52EE52EE527A
:1032E000EF500F0BE82AF36EF3500F0BF36EF46EF2
:1032F000F00EEF14F310EF6EF450010E07D0000142
:10330000C691C693C695C697000E00D0146E040EE3
:10331000E15C02E2E16AE552E16E1450E552E7CF6A
:10332000D9FF1200D9CFE6FFE1CFD9FF040EE12685
:103330000001D80508E1090EE66E640EE66E69EC40
:103340002CF0E552E552959495968C948C8657DC3A
:1033500056DCDE6ADD6ADECF14F0DDCF15F02C0E10
:10336000145C010E15582FE24ADC010EE66EE9DC12
:10337000E552020EF3CFDBFF030EF4CFDBFF0001BB
:10338000D80510E1020EDBCFE6FF030EDBCFE6FF30
:10339000DECFE6FFDDCFE6FF1CEC2BF0E552E55279
:1033A000E552E552020EDBCF14F0030EDBCF15F031
:1033B000510E145C020E155801E205D0DF2A010EF1
:1033C00001E3DB2AC8D78C968BEC2CF0D9CFE9FF30
:1033D000DACFEAFF2C0EEE1802E1010EED183EE105
:1033E0008C8AE66A64C0E6FF65C0E6FF000EE66E02
:1033F000E66AE66AEAEC1EF0146E060EE15E145010
:10340000C1EC2CF064C0E6FF65C0E6FF69EC2CF06F
:10341000E552E5522BEC15F02BEC15F02BEC15F0EA
:103420008C9AC30EE96E000EEA6EEE52EE52EF5029
:10343000F00BE842E842E842E842E82AF36EF35033
:103440000F0BF36EF46EF346F346F346F3460F0E9E
:10345000EF14F310EF6EF450010E07D00001C59980
:10346000C59BC59DC59F000E00D0146E040EE15C87
:1034700002E2E16AE552E16E1450E552E7CFD9FF6E
:103480001200D9CFE6FFE1CFD9FF040EE1269590D7
:1034900095928C808C92FFEC15F0FFEC15F0DE6AB3
:1034A000DD6ADECF14F0DDCF15F0370E145C000EB0
:1034B000155807E2FFEC15F0DF2A010E01E3DB2AC5
:1034C000F0D78C900000040EE15C02E2E16AE55264
:1034D000E16EE552E7CFD9FF1200D9CFE6FFE1CF89
:1034E000D9FF040EE126959095928C908C82FFEC8A
:1034F00015F0FFEC15F0DE6ADD6ADECF14F0DDCFEB
:1035000015F02D0E0001E625166E176A1650145C94
:103510001750155807E2FFEC15F0DF2A010E01E302
:10352000DB2AEBD78C920000040EE15C02E2E16A38
:10353000E552E16EE552E7CFD9FF1200D9CFE6FFA1
:10354000E1CFD9FF0A0EE1260001D80508E1FB0E04
:10355000E66E630EE66E69EC2CF0E552E55295904E
:1035600095928C928C80FFEC15F0FFEC15F0DE6AE2
:10357000DD6ADECF14F0DDCF15F0C80E145C000E4E
:10358000155830E2FFEC15F0E66AA1EC16F0E552B2
:10359000020EF3CFDBFF030EF4CFDBFF0001D805F3
:1035A00010E1020EDBCFE6FF030EDBCFE6FFDECF3E
:1035B000E6FFDDCFE6FF1CEC2BF0E552E552E552CD
:1035C000E552D950020FE96EDACFEAFF5C0ED880DF
:1035D000EE54030EED5401E205D0DF2A010E01E3A3
:1035E000DB2AC7D78C908BEC2CF0DECF14F0DDCF2C
:1035F00015F0500E145C000E15580BE3D9CFE9FFFF
:10360000DACFEAFF800ED880EE54000EED5401E3CD
:10361000A0D08C8A540EF36E040EF3CFDBFF3A0E6B
:10362000F36E050EF3CFDBFFDECF14F0DDCF15F028
:10363000640E0D6E0E6A14C008F015C009F052EC4D
:1036400035F008C014F009C015F0300E1426000E35
:103650001522060E14C0DBFFDECF14F0DDCF15F00F
:103660000A0E0D6E0E6A14C008F015C009F052EC77
:1036700035F008C014F009C015F00A0E0D6E0E6A80
:1036800014C008F015C009F052EC35F004C014F075
:1036900005C015F0300E1426000E1522070E14C0BA
:1036A000DBFFDECF14F0DDCF15F00A0E0D6E0E6AD3
:1036B00014C008F015C009F052EC35F004C014F045
:1036C00005C015F0300E1426000E1522080E14C089
:1036D000DBFF090EDB6AE66A680EE66E000EE66E38
:1036E000D950040FE66E000EDA20E66E010EE66E8B
:1036F00034EC1FF0146E060EE15E14500001D80584
:103700000AE1C1EC2CF0680EE66E000EE66E3CECB1
:103710002CF0E552E5522BEC15F02BEC15F02BECD0
:1037200015F08C9AC30EE96E000EEA6E040EE926BF
:10373000000EEA22EF500F0BE82AF36EF3500F0B46
:10374000F36EF46EF00EEF14F310EF6EF450020E01
:1037500007D00001C791C793C795C797000E00D047
:10376000146E0A0EE15C02E2E16AE552E16E145069
:10377000E552E7CFD9FF1200D9CFE6FFE1CFD9FF5D
:103780000A0EE1260001D80508E1EE0EE66E630E92
:10379000E66E69EC2CF0E552E552959495968C9482
:1037A0008C86FFEC15F0FFEC15F0DE6ADD6ADECFEB
:1037B00014F0DDCF15F0C80E145C000E155831E280
:1037C000FFEC15F0010EE66EA1EC16F0E552020ECC
:1037D000F3CFDBFF030EF4CFDBFF0001D80510E1D0
:1037E000020EDBCFE6FF030EDBCFE6FFDECFE6FF08
:1037F000DDCFE6FF1CEC2BF0E552E552E552E55239
:10380000020EDBCF14F0030EDBCF15F0510E145C6B
:10381000020E155801E205D0DF2A010E01E3DB2A72
:10382000C6D78C968BEC2CF0DECF14F0DDCF15F0E4
:10383000500E145C000E15580BE3D9CFE9FFDACF18
:10384000EAFF800ED880EE54000EED5401E3A8D0BC
:103850008C8A540EF36E040EF3CFDBFF3A0EF36E38
:10386000050EF3CFDBFFDECF14F0DDCF15F0640ED5
:103870000D6E0E6A14C008F015C009F052EC35F058
:1038800008C014F009C015F0300E1426000E1522E1
:10389000060E14C0DBFFDECF14F0DDCF15F00A0EEC
:1038A0000D6E0E6A14C008F015C009F052EC35F028
:1038B00008C014F009C015F00A0E0D6E0E6A14C08F
:1038C00008F015C009F052EC35F004C014F005C042
:1038D00015F0300E1426000E1522070E14C0DBFF63
:1038E000DECF14F0DDCF15F00A0E0D6E0E6A14C097
:1038F00008F015C009F052EC35F004C014F005C012
:1039000015F0300E1426000E1522080E14C0DBFF31
:10391000090EDB6AE66A9A0EE66E000EE66ED95074
:10392000040FE66E000EDA20E66E010EE66E34EC51
:103930001FF0146E060EE15E14500001D8050AE176
:10394000C1EC2CF09A0EE66E000EE66E3CEC2CF00C
:10395000E552E5522BEC15F02BEC15F02BEC15F0A5
:103960008C9AC30EE96E000EEA6E040EE926000E74
:10397000EA22EF50F00BE842E842E842E842E82A47
:10398000F36EF3500F0BF36EF46EF346F346F3460B
:10399000F3460F0EEF14F310EF6EF450020E07D043
:1039A0000001C799C79BC79DC79F000E00D0146E2A
:1039B0000A0EE15C02E2E16AE552E16E1450E55262
:1039C000E7CFD9FF1200D9CFE6FFE1CFD9FF020E32
:1039D000E126DE6ADD6ADECF14F0DDCF15F08A0E57
:1039E000145C020E15580BE28C8E67EC16F08C9E60
:1039F00067EC16F0DF2A010E01E3DB2AECD7020E9A
:103A0000E15C02E2E16AE552E16EE552E7CFD9FFFF
:103A10001200D9CFE6FFE1CFD9FF020EE126DE6A20
:103A2000DD6ADECF14F0DDCF15F0450E145C010E1B
:103A300015580FE28C8E67EC16F067EC16F08C9E32
:103A400067EC16F067EC16F0DF2A010E01E3DB2AC3
:103A5000E8D7020EE15C02E2E16AE552E16EE5526E
:103A6000E7CFD9FF1200F198F092F08EF088F28E35
:103A70001200D9CFE6FFE1CFD9FF2A0EE126D950B7
:103A8000140FE96EDACFEAFF500EEE6E3D0EEE6EC9
:103A9000200EEE6EEE6EEE6EEE6EEE6EEE6EEE6E74
:103AA000EE6E540EEE6E3D0EEE6E200EEE6EEE6E6F
:103AB000EE6E730EEE6EEE6AEE6AFD0EDBCFACF0CC
:103AC000FE0EDBCFADF0ACC008F0ADC009F024ECC9
:103AD00033F00C0E07C0DBFF0D0E08C0DBFF0E0E2F
:103AE00009C0DBFF0F0E0AC0DBFF0C0EDBCF14F0AA
:103AF0000D0EDBCF15F00E0EDBCF16F00F0EDBCF69
:103B000017F0AA0E0C6E820E0D6E510E0E6E3E0E4A
:103B10000F6E14C007F015C008F016C009F017C0EA
:103B20000AF039EC33F0D0EC33F0260E06C0DBFFA0
:103B3000270E07C0DBFF280E08C0DBFF290E09C0D7
:103B4000DBFFE80E146E030E156E260EDBCF08F0B9
:103B5000270EDBCF09F014C00DF015C00EF08CEC71
:103B600033F0100E08C0DBFF260EDBCF06F0270E69
:103B7000DBCF07F0280EDBCF08F0290EDBCF09F0F2
:103B8000E80E0B6E030E0C6E0D6A0E6A14EC35F027
:103B900002C006F003C007F004C008F005C009F039
:103BA000640E0B6E0C6A0D6A0E6A14EC35F0110E81
:103BB00006C0DBFF260EDBCF06F0270EDBCF07F0BB
:103BC000280EDBCF08F0290EDBCF09F0640E0B6E58
:103BD0000C6A0D6A0E6A14EC35F002C006F003C0E0
:103BE00007F004C008F005C009F00A0E0B6E0C6A5D
:103BF0000D6A0E6A14EC35F0120E06C0DBFF260EBD
:103C0000DBCF06F0270EDBCF07F0280EDBCF08F066
:103C1000290EDBCF09F00A0E0B6E0C6A0D6A0E6AD4
:103C200014EC35F0130E02C0DBFF2C0EF36E030E06
:103C3000F3CFDBFF100EDB50300FE76E160EE7CF31
:103C4000DBFFDB50E76E040EE7CFDBFF2E0EF36EDB
:103C5000170EF3CFDBFF2E0EF36E050EF3CFDBFF57
:103C6000110EDB50300FE76E180EE7CFDBFFDB5095
:103C7000E76E060EE7CFDBFF120EDB50300FE76E6C
:103C8000190EE7CFDBFFDB50E76E070EE7CFDBFF58
:103C9000130EDB50300FE76E1A0EE7CFDBFFDB5061
:103CA000E76E080EE7CFDBFF560EF36E1B0EF3CF69
:103CB000DBFF0A0EF36E090EF3CFDBFF0A0EDB6AA1
:103CC000640E146E156AAAC008F0ABC009F014C0E7
:103CD0000DF015C00EF08CEC33F0100E08C0DBFFB9
:103CE000AAC014F0ABC015F0640E0D6E0E6A14C0BD
:103CF00008F015C009F052EC35F004C014F005C00E
:103D000015F00A0E0D6E0E6A14C008F015C009F009
:103D100052EC35F008C014F009C015F0110E14C0B3
:103D2000DBFFAAC014F0ABC015F00A0E0D6E0E6AD0
:103D300014C008F015C009F052EC35F004C014F0BE
:103D400005C015F0120E14C0DBFF100EDB50300F53
:103D5000E76E200EE7CFDBFFDB50DF6E110EDB508E
:103D6000300FE76E210EE7CFDBFFDB50E76E010E71
:103D7000E7CFDBFF120EDB50300FE76E220EE7CFEE
:103D8000DBFFDB50E76E020EE7CFDBFF0001D8055B
:103D900008E1D9CFE6FFDACFE6FF3CEC2CF0E552A4
:103DA000E552C00EE66E02EC25F0E552D950140F34
:103DB000E66E000EDA20E66EEBEC25F0E552E552F9
:103DC0002A0EE15C02E2E16AE552E16EE552E7CFDC
:043DD000D9FF120005
:0C3DD400D9CFE6FFE1CFD9FFFE0EDB5097
:103DE00005E0010EE66E02EC25F0E552D950FC0F1D
:103DF000E96EFF0EDA20EA6EEE50ED100FE0800E55
:103E0000E66E02EC25F0E552FC0EDBCFE6FFFD0E80
:103E1000DBCFE6FF84EC25F0E552E552D950FA0FEE
:103E2000E96EFF0EDA20EA6EEE50ED100FE0C00EE4
:103E3000E66E02EC25F0E552FA0EDBCFE6FFFB0E54
:103E4000DBCFE6FF84EC25F0E552E552F90EDBCF3F
:103E5000F3FFDB06F350000903E02BEC15F0F6D777
:103E6000E552E7CFD9FF1200D9CFE6FFE1CFD9FF66
:103E7000FE0EDB5005E0010EE66E02EC25F0E55289
:103E8000D950FC0FE96EFF0EDA20EA6EEE50ED100D
:103E90000FE0800EE66E02EC25F0E552FC0EDBCF63
:103EA000E6FFFD0EDBCFE6FFEBEC25F0E552E55239
:103EB000D950FA0FE96EFF0EDA20EA6EEE50ED10DF
:103EC0000FE0C00EE66E02EC25F0E552FA0EDBCFF5
:103ED000E6FFFB0EDBCFE6FFEBEC25F0E552E5520B
:103EE000F90EDBCFF3FFDB06F350000903E02BEC08
:103EF00015F0F6D7E552E7CFD9FF1200D9CFE6FF8C
:103F0000E1CFD9FF150EE126B0C0DFFF010EB1C031
:103F1000DBFF020EB2C0DBFF030EB3C0DBFF540EAB
:103F2000F36E040EF3CFDBFFD9CFE9FFDACFEAFF60
:103F3000EECF14F0EECF15F0EECF16F0EFCF17F076
:103F40000A0E0B6E0C6A0D6A0E6A14C006F015C0DC
:103F500007F016C008F017C009F014EC35F002C0E5
:103F600014F003C015F004C016F005C017F0300EB1
:103F70001426000E1522162217220B0E14C0DBFF8A
:103F8000D9CFE9FFDACFEAFFEECF06F0EECF07F0A8
:103F9000EECF08F0EFCF09F00A0E0B6E0C6A0D6A37
:103FA0000E6A14EC35F006C0DEFF07C0DEFF08C065
:103FB000DEFF09C0DDFFDD52DD52D9CFE9FFDACFE8
:103FC000EAFFEECF14F0EECF15F0EECF16F0EFCF04
:103FD00017F00A0E0B6E0C6A0D6A0E6A14C006F01A
:103FE00015C007F016C008F017C009F014EC35F042
:103FF00002C014F003C015F004C016F005C017F09D
:10400000300E1426000E1522162217220A0E14C096
:10401000DBFFD9CFE9FFDACFEAFFEECF06F0EECF34
:1040200007F0EECF08F0EFCF09F00B6E0C6A0D6AC7
:104030000E6A14EC35F006C0DEFF07C0DEFF08C0D4
:10404000DEFF09C0DDFFDD52DD52D9CFE9FFDACF57
:10405000EAFFEECF14F0EECF15F0EECF16F0EFCF73
:1040600017F00A0E0B6E0C6A0D6A0E6A14C006F089
:1040700015C007F016C008F017C009F014EC35F0B1
:1040800002C014F003C015F004C016F005C017F00C
:10409000300E1426000E152216221722090E14C007
:1040A000DBFFD9CFE9FFDACFEAFFEECF06F0EECFA4
:1040B00007F0EECF08F0EFCF09F00A0E0B6E0C6A96
:1040C0000D6A0E6A14EC35F006C0DEFF07C0DEFF95
:1040D00008C0DEFF09C0DDFFDD52DD52D9CFE9FFA8
:1040E000DACFEAFFEECF14F0EECF15F0EECF16F0F8
:1040F000EFCF17F00A0E0B6E0C6A0D6A0E6A14C031
:1041000006F015C007F016C008F017C009F014EC4F
:1041100035F002C014F003C015F004C016F005C05D
:1041200017F0300E1426000E152216221722080E44
:1041300014C0DBFFD9CFE9FFDACFEAFFEECF06F0FC
:10414000EECF07F0EECF08F0EFCF09F00A0E0B6EBE
:104150000C6A0D6A0E6A14EC35F006C0DEFF07C06B
:10416000DEFF08C0DEFF09C0DDFFDD52DD52D9CF22
:10417000E9FFDACFEAFFEECF14F0EECF15F0EECF85
:1041800016F0EFCF17F00A0E0B6E0C6A0D6A0E6A6E
:1041900014C006F015C007F016C008F017C009F0EB
:1041A00014EC35F002C014F003C015F004C016F092
:1041B00005C017F0300E1426000E15221622172205
:1041C000070E14C0DBFFD9CFE9FFDACFEAFFEECF4D
:1041D00006F0EECF07F0EECF08F0EFCF09F00A0EB1
:1041E0000B6E0C6A0D6A0E6A14EC35F006C0DEFF29
:1041F00007C0DEFF08C0DEFF09C0DDFFDD52DD5273
:10420000D9CFE9FFDACFEAFFEECF14F0EECF15F009
:10421000EECF16F0EFCF17F00A0E0B6E0C6A0D6A98
:104220000E6A14C006F015C007F016C008F017C0DB
:1042300009F014EC35F002C014F003C015F004C00E
:1042400016F005C017F0300E1426000E15221622A7
:104250001722060E14C0DBFFD9CFE9FFDACFEAFF41
:10426000EECF06F0EECF07F0EECF08F0EFCF09F07B
:104270000A0E0B6E0C6A0D6A0E6A14EC35F006C05D
:10428000DEFF07C0DEFF08C0DEFF09C0DDFFDD5234
:10429000DD52D9CFE9FFDACFEAFFEECF14F0EECF4F
:1042A00015F0EECF16F0EFCF17F00A0E0B6E0C6A7A
:1042B0000D6A0E6A14C006F015C007F016C008F0AB
:1042C00017C009F014EC35F002C014F003C015F06B
:1042D00004C016F005C017F0300E1426000E15228B
:1042E00016221722050E14C0DBFFD9CFE9FFDACF63
:1042F000EAFFEECF06F0EECF07F0EECF08F0EFCFFB
:1043000009F00A0E0B6E0C6A0D6A0E6A14EC35F099
:1043100006C0DEFF07C0DEFF08C0DEFF09C0DDFF0C
:10432000DD52DD527C0EF36E0C0EF3CFDBFFB4C01A
:10433000DFFF010EB5C0DBFF020EB6C0DBFF030ED0
:10434000B7C0DBFF500EF36E0D0EF3CFDBFFD9CFFE
:10435000E9FFDACFEAFFEECF14F0EECF15F0EECFA3
:1043600016F0EFCF17F00A0E0B6E0C6A0D6A0E6A8C
:1043700014C006F015C007F016C008F017C009F009
:1043800014EC35F002C014F003C015F004C016F0B0
:1043900005C017F0300E1426000E15221622172223
:1043A000130E14C0DBFFD9CFE9FFDACFEAFFEECF5F
:1043B00006F0EECF07F0EECF08F0EFCF09F00A0ECF
:1043C0000B6E0C6A0D6A0E6A14EC35F006C0DEFF47
:1043D00007C0DEFF08C0DEFF09C0DDFFDD52DD5291
:1043E000D9CFE9FFDACFEAFFEECF14F0EECF15F028
:1043F000EECF16F0EFCF17F00A0E0B6E0C6A0D6AB7
:104400000E6A14C006F015C007F016C008F017C0F9
:1044100009F014EC35F002C014F003C015F004C02C
:1044200016F005C017F0300E1426000E15221622C5
:104430001722120E14C0DBFFD9CFE9FFDACFEAFF53
:10444000EECF06F0EECF07F0EECF08F0EFCF09F099
:104450000A0E0B6E0C6A0D6A0E6A14EC35F006C07B
:10446000DEFF07C0DEFF08C0DEFF09C0DDFFDD5252
:10447000DD52D9CFE9FFDACFEAFFEECF14F0EECF6D
:1044800015F0EECF16F0EFCF17F00A0E0B6E0C6A98
:104490000D6A0E6A14C006F015C007F016C008F0C9
:1044A00017C009F014EC35F002C014F003C015F089
:1044B00004C016F005C017F0300E1426000E1522A9
:1044C00016221722110E14C0DBFFD9CFE9FFDACF75
:1044D000EAFFEECF06F0EECF07F0EECF08F0EFCF19
:1044E00009F00A0E0B6E0C6A0D6A0E6A14EC35F0B8
:1044F00006C0DEFF07C0DEFF08C0DEFF09C0DDFF2B
:10450000DD52DD52D9CFE9FFDACFEAFFEECF14F06A
:10451000EECF15F0EECF16F0EFCF17F00A0E0B6EC0
:104520000C6A0D6A0E6A14C006F015C007F016C0BA
:1045300008F017C009F014EC35F002C014F003C005
:1045400015F004C016F005C017F0300E1426000E4A
:10455000152216221722100E14C0DBFFD9CFE9FF57
:10456000DACFEAFFEECF06F0EECF07F0EECF08F09D
:10457000EFCF09F00A0E0B6E0C6A0D6A0E6A14EC8E
:1045800035F006C0DEFF07C0DEFF08C0DEFF09C051
:10459000DDFFDD52DD52D9CFE9FFDACFEAFFEECF02
:1045A00014F0EECF15F0EECF16F0EFCF17F00A0EA5
:1045B0000B6E0C6A0D6A0E6A14C006F015C007F087
:1045C00016C008F017C009F014EC35F002C014F062
:1045D00003C015F004C016F005C017F0300E142605
:1045E000000E1522162217220F0E14C0DBFFD9CFA2
:1045F000E9FFDACFEAFFEECF06F0EECF07F0EECF1D
:1046000008F0EFCF09F00A0E0B6E0C6A0D6A0E6A05
:1046100014EC35F006C0DEFF07C0DEFF08C0DEFF89
:1046200009C0DDFFDD52DD52D9CFE9FFDACFEAFF65
:10463000EECF14F0EECF15F0EECF16F0EFCF17F06F
:104640000A0E0B6E0C6A0D6A0E6A14C006F015C0D5
:1046500007F016C008F017C009F014EC35F002C0DE
:1046600014F003C015F004C016F005C017F0300EAA
:104670001426000E1522162217220E0E14C0DBFF80
:10468000D9CFE9FFDACFEAFFEECF06F0EECF07F0A1
:10469000EECF08F0EFCF09F00A0E0B6E0C6A0D6A30
:1046A0000E6A14EC35F006C0DEFF07C0DEFF08C05E
:1046B000DEFF09C0DDFFDD52DD52D9CFE9FFDACFE1
:1046C000EAFFEECF06F0EECF07F0EECF08F0EFCF27
:1046D00009F00A0E0B6E0C6A0D6A0E6A14EC35F0C6
:1046E00006C0DEFF07C0DEFF08C0DEFF09C0DDFF39
:1046F000DD52DD52140EDB6A800EE66E83D9E55280
:10470000D950040FE66E000EDA20E66E64DAE55248
:10471000E552150EE15C02E2E16AE552E16EE55216
:10472000E7CFD9FF1200D9CFE6FFE1CFD9FF020EC4
:10473000E126DC0EDE6E050EDD6E080EE66EADECDB
:1047400014F0E55281A852D0DECF14F0DDCF15F081
:10475000F40E0D6E010E0E6E14C008F015C009F0B7
:1047600052EC35F004C014F005C015F014501510CB
:1047700032E18C7AD9CFE9FFDACFEAFFDC0EEE180E
:1047800002E1050EED1816E1E66A8E0EE66E640E85
:10479000E66E900EE66E640EE66E010EE66EEAECD4
:1047A0001EF0146E060EE15E1450E66AADEC14F0D5
:1047B000E55211D0D9CFE9FFDACFEAFFB80EEE18F3
:1047C00002E10B0EED1807E1DE6ADD6A080EE66E07
:1047D000ADEC14F0E552DF2A010E01E3DB2A67ECB1
:1047E00016F067EC16F067EC16F0ACD7E66AADECA5
:1047F00014F0E5528C9A020EE15C02E2E16AE552A5
:10480000E16EE552E7CFD9FF1200D9CFE6FFE1CF45
:10481000D9FF020EE126DC0EDE6E050EDD6EDECF68
:1048200014F0DDCF15F0F40E0D6E010E0E6E14C0F7
:1048300008F015C009F052EC35F004C014F005C0C2
:1048400015F01450151039E18C7AD9CFE9FFDACF81
:10485000EAFFDC0EEE1802E1050EED1811E1E66A42
:10486000000EE66EE66A820EE66E640EE66E010EDD
:10487000E66EEAEC1EF0146E060EE15E14501DD0DA
:10488000D9CFE9FFDACFEAFFB80EEE1802E10B0E3E
:10489000ED1813E1E66A690EE66E640EE66E750EBB
:1048A000E66E640EE66E010EE66EEAEC1EF0146E25
:1048B000060EE15E1450DE6ADD6ADF2A010E01E3B6
:1048C000DB2A67EC16F067EC16F067EC16F081B89F
:1048D0000DD0CAEC15F081B809D0E66AADEC14F041
:1048E000E5528C9A020EE15C04E201D098D7E16AAD
:1048F000E552E16EE552E7CFD9FF12009392939013
:1049000067EC16F08A908A9267EC16F09382938097
:104910009D96C00EC76E280EC66EC56A770EC86E0D
:104920009D969E961200A1B6FED7C750010B03E1DB
:10493000C750040B01E0F9D79E961200040EC7146D
:1049400003E11F0EC51401E0F9D7C580C5B0FED73D
:104950009E961200E8DFC584C5B4FED79E9612006D
:10496000D9CFE6FFE1CFD9FFFE0EDB50C96EDBDF0A
:10497000E552E7CFD9FF1200D9CFE6FFE1CFD9FF4B
:10498000DDDFE5C0E6FFECDFE552FE0EDB500001A7
:10499000EA11E66EE5DFE552DDDFE552E7CFD9FF4C
:1049A0001200D9CFE6FFE1CFD9FFFE0EDBCFE7FF44
:1049B0000001E451E712FE0EE7CFDBFFDB50FB0BFB
:1049C000E66EDADFE552020EE66E94EC35F0E55263
:1049D000FE0EDB500409E66ECFDFE552020EE66EF6
:1049E00094EC35F0E552FE0EDB50FB0BE66EC4DFB7
:1049F000E552050EE66E68EC35F0E552E552E7CF7C
:104A0000D9FF1200D9CFE6FFE1CFD9FF0001E46B57
:104A1000FE0EDB50F00BE66EC4DFE552FE0EDB3817
:104A2000F00BF00BE66EBDDFE552FE0EDB0404E09A
:104A3000FE0EDB50020802E167EC16F067EC16F0A0
:104A4000E552E7CFD9FF1200D9CFE6FFE1CFD9FF7A
:104A5000FD0EDB50020A01E008D0FE0EDB50C00F55
:104A6000FF0FE66ECFDFE55207D0FE0EDB50800F62
:104A7000FF0FE66EC7DFE552E552E7CFD9FF120020
:104A8000D9CFE6FFE1CFD9FFE652DF6A0001010E80
:104A9000E46FDF50E76EFD0EDBCFF6FFFE0EDBCFDF
:104AA000F7FFE750F626000EF7220800F55027E042
:104AB000DF50E76EFD0EDBCFF6FFFE0EDBCFF7FF1C
:104AC000E750F626000EF7220800F550F00BE66ED0
:104AD00068DFE552DF50DF2AE76EFD0EDBCFF6FF21
:104AE000FE0EDBCFF7FFE750F626000EF722080098
:104AF000F538F00BF00BE66E54DFE552CAD7E552FD
:104B0000E552E7CFD9FF1200D9CFE6FFE1CFD9FFB9
:104B1000020EE126200EDF6E010EDB6A0001E46F5B
:104B2000010EDB50E76EFD0EDBCFF6FFFE0EDBCF96
:104B3000F7FFE750F626000EF7220800F5502BE0AD
:104B4000010EDB50E76EFD0EDBCFF6FFFE0EDBCF76
:104B5000F7FFE750F626000EF7220800F550F00B9D
:104B6000E66E1FDFE552010EDBCFF3FFDB2AF350C9
:104B7000E76EFD0EDBCFF6FFFE0EDBCFF7FFE75053
:104B8000F626000EF7220800F538F00BF00BE66E63
:104B900008DFE552C5D7100EF36E010EDBCFF4FF30
:104BA000F350F45C0EE2F00EDF14E66EFADEE5522E
:104BB000DF38F00BF00BE66EF4DEE552010EDB2A77
:104BC000EAD7020EE15C02E2E16AE552E16EE552EB
:104BD000E7CFD9FF1200D9CFE6FFE1CFD9FFE652E8
:104BE000DF6A0001010EE46FDF50E76EFD0EDBCFE0
:104BF000E9FFFE0EDBCFEAFFE750E926000EEA22CE
:104C0000EF5025E0DF50E76EFD0EDBCFE9FFFE0E33
:104C1000DBCFEAFFE750E926000EEA22EF50F00B67
:104C2000E66EBFDEE552DF50DF2AE76EFD0EDBCF1A
:104C3000E9FFFE0EDBCFEAFFE750E926000EEA228D
:104C4000EF38F00BF00BE66EACDEE552CDD7E55257
:104C5000E552E7CFD9FF1200D9CFE6FFE1CFD9FF68
:104C6000FE0EDBCFE5F0E66A87DEE552FFEC15F0DD
:104C7000030EE66EC7DEE552FFEC15F0030EE66E9E
:104C8000C1DEE552FFEC15F0030EE66EBBDEE55229
:104C9000FFEC15F0020EE66EB5DEE552FFEC15F006
:104CA000280EE66EAFDEE552FFEC15F00C0EE66E58
:104CB000A9DEE552FFEC15F0010EE66EA3DEE5522B
:104CC000FFEC15F0060EE66E9DDEE552FFEC15F0EA
:084CD000E552E7CFD9FF120005
:084CD8000001240EE36FE3C0AC
:104CE000ACFF900EAB6E080EB86EB06A680EAF6E79
:104CF0001200E66A700EE66E650EE66E000EE66E57
:104D0000E66A010EE66EEAEC1EF0146E060EE15E37
:104D100014508150100B1FE18150080B1CE1000161
:104D2000010EE16FE66AE1C0E6FFDAEC14F0E5524D
:104D3000E552020EE66E6C0EE66E650EE66E000E35
:104D4000E66EE66A010EE66EEAEC1EF0146E060EE2
:104D5000E15E145002D081B4DCD71200E66A630E23
:104D6000E66E650EE66E000EE66EE66A010EE66E13
:104D7000EAEC1EF0146E060EE15E14508150100B2A
:104D80001EE18150080B1BE10001E16BE66AE1C006
:104D9000E6FFDAEC14F0E552E552020EE66E600E24
:104DA000E66E650EE66E000EE66EE66A010EE66ED3
:104DB000EAEC1EF0146E060EE15E145002D081B4CF
:104DC000DDD71200E66A580EE66E650EE66E000E3E
:104DD000E66EE66A010EE66EEAEC1EF0146E060E52
:104DE000E15E14508150100B20E18150080B1DE151
:104DF0000001010EE26F020EE66EE2C0E6FFDAECA1
:104E000014F0E552E552020EE66E6C0EE66E650E8B
:104E1000E66E000EE66EE66A010EE66EEAEC1EF045
:104E2000146E060EE15E145002D081B4DBD712007E
:104E3000E66A510EE66E650EE66E000EE66EE66AF6
:104E4000010EE66EEAEC1EF0146E060EE15E1450E2
:104E50008150100B1FE18150080B1CE10001E26B37
:104E6000020EE66EE2C0E6FFDAEC14F0E552E5521F
:104E7000020EE66E600EE66E650EE66E000EE66EE3
:104E8000E66A010EE66EEAEC1EF0146E060EE15EB6
:104E9000145002D081B4DCD71200D9CFE6FFE1CFA5
:104EA000D9FF020EE126F40EDE6E010EDD6E81AC3E
:104EB0001AD081AC18D0D9CFE9FFDACFEAFFEE5093
:104EC000ED1002E1010E11D08150100B05E181506F
:104ED000080B02E1000E09D0F6EC14F0DF06010E1B
:104EE00001E2DB06E6D7000E00D0146E020EE15C94
:104EF00002E2E16AE552E16E1450E552E7CFD9FFD4
:104F00001200D9CFE6FFE1CFD9FF020EE126900EC5
:104F1000DE6E650EDD6E81BC38D0E66A000EE66E90
:104F2000E66A440EE66E650EE66E010EE66EEAEC8B
:104F30001EF0146E060EE15E145081BC26D0D9CF4F
:104F4000E9FFDACFEAFFEE50ED1011E1E66A3B0E21
:104F5000E66E650EE66E000EE66EE66AE66AEAEC5E
:104F60001EF0146E060EE15E14504AEC0DF08150F6
:104F7000100B04E18150080B01E10AD0F6EC14F0AB
:104F8000DF06010E01E2DB06D8D70001010ED86F63
:104F9000020EE15C02E2E16AE552E16EE552E7CF22
:104FA000D9FF1200D9CFE6FFE1CFD9FF030EE126EA
:104FB000B80EF36E010EF3CFDBFF0B0EF36E020E95
:104FC000F3CFDBFF8150040B03E18150080B1BE0A2
:104FD0009EAA18D09E9AAE50DF6E530EDF5C02E19F
:104FE000000E11D033EC16F0010EDBCF14F0DB060F
:104FF000020EDBCF15F001E2DB061450151002E1C2
:10500000010E01D0DFD7146E030EE15C02E2E16A0B
:10501000E552E16E1450E552E7CFD9FF1200D9CF27
:10502000E6FFE1CFD9FFE652AB989E9AAB88AE502F
:10503000DF6EAE50DF6EE552E552E7CFD9FF1200CA
:10504000D9CFE6FFE1CFD9FF030EE126E00EDE6EF9
:105050002E0EDD6E020EDB6A9E9AE66A000EE66E8A
:10506000E66A080EE66E650EE66EE66AEAEC1EF08B
:10507000146E060EE15E14508150100B04E1815055
:10508000080B01E149D29EAA0DD29E9A020EAECF24
:10509000DBFFDB50420A01E1CAD10E0A01E18CD1EB
:1050A0001D0A01E15DD1150A01E133D1070A01E1D1
:1050B00007D10D0A01E1CED0060A01E195D01B0A05
:1050C00065E0010A35E0130A2CE0CAEC15F0C30EC6
:1050D000E96E000EEA6E070EE926000EEA22EF5096
:1050E0000F0BE82AF36EF3500F0BF36EF46EF00E15
:1050F000EF14F310EF6EF4508C8A010EE66EDDC0F3
:10510000E6FFDEC0E6FF000EE66EE66A010EE66E22
:10511000EAEC1EF0146E060EE15E14508C9A030E3B
:10512000FBD10001CA91CA93CA95CA97000EF4D167
:10513000CAEC15F0C30EE96E000EEA6E070EE92602
:10514000000EEA22EF500F0BE82AF36EF3500F0B1C
:10515000F36EF46EF00EEF14F310EF6EF4508C8AD1
:10516000CAEC15F0020EE66EFF0EE66E640EE66EF9
:10517000000EE66EE66A010EE66EEAEC1EF0146EB4
:10518000060EE15E14508C9A010EC6D1CAEC15F0E1
:10519000C30EE96E000EEA6E070EE926000EEA2243
:1051A000EF500F0BE82AF36EF3500F0BF36EF46E13
:1051B000F00EEF14F310EF6EF4508C8ACAEC15F079
:1051C000020EE66EF10EE66E640EE66E000EE66E00
:1051D000E66A010EE66EEAEC1EF0146E060EE15E63
:1051E00014508C9A030E98D1CAEC15F0C30EE96ED8
:1051F000000EEA6E070EE926000EEA22EF500F0BB2
:10520000E82AF36EF3500F0BF36EF46EF00EEF140A
:10521000F310EF6EF450010EE66EBBC0E6FFBCC0AB
:10522000E6FFE00EE66E640EE66E010EE66EEAEC58
:105230001EF0146E060EE15E14508150100B07E054
:105240008150080B04E08C7A60EC15F0F6D78C9A4C
:10525000010E62D1CAEC15F0C30EE96E000EEA6EC3
:10526000070EE926000EEA22EF500F0BE82AF36E34
:10527000F3500F0BF36EF46EF00EEF14F310EF6EAD
:10528000F450010EE66EBBC0E6FFBCC0E6FFD20ED6
:10529000E66E640EE66E010EE66EEAEC1EF0146E2B
:1052A000060EE15E14508150100B07E08150080B90
:1052B00004E08C7A60EC15F0F6D78C9A010E2CD1B4
:1052C000CAEC15F08C8A6EEC30F0010EE66EBBC0B5
:1052D000E6FFBCC0E6FFC00EE66E640EE66E010E91
:1052E000E66EEAEC1EF0146E060EE15E145081507C
:1052F000100B07E08150080B04E08C7A60EC15F08D
:10530000F6D78C9A010EE66E02EC25F0E552020EFD
:1053100003D1CAEC15F08C8A010EE66EBBC0E6FF25
:10532000BCC0E6FFB20EE66E640EE66E010EE66EDF
:10533000EAEC1EF0146E060EE15E14508150100B64
:1053400007E08150080B04E08C7A60EC15F0F6D78A
:105350008C9A010EE66E02EC25F0E552020EDCD0CE
:10536000CAEC15F0C30EE96E000EEA6E070EE926D0
:10537000000EEA22EF500F0BE82AF36EF3500F0BEA
:10538000F36EF46EF00EEF14F310EF6EF4508C8A9F
:10539000010EE66EDBC0E6FFDCC0E6FF000EE66E47
:1053A000E66A010EE66EEAEC1EF0146E060EE15E91
:1053B00014508C9A030EB0D0CAEC15F0C30EE96EEF
:1053C000000EEA6E070EE926000EEA22EF500F0BE0
:1053D000E82AF36EF3500F0BF36EF46EF00EEF1439
:1053E000F310EF6EF450010EE66EBBC0E6FFBCC0DA
:1053F000E6FFD20EE66E640EE66E010EE66EEAEC95
:105400001EF0146E060EE15E14508150100B07E082
:105410008150080B04E08C7A60EC15F0F6D78C9A7A
:10542000010EE66E02EC25F0E552010E75D0CAECD5
:1054300015F0C30EE96E000EEA6E070EE926000EA7
:10544000EA22EF500F0BE82AF36EF3500F0BF36EC6
:10545000F46EF00EEF14F310EF6EF450010EE66EE2
:10546000BBC0E6FFBCC0E6FFA30EE66E640EE66EB0
:10547000010EE66EEAEC1EF0146E060EE15E1450AC
:105480008150100B07E08150080B04E08C7A60EC2F
:1054900015F0F6D78C9A010EE66E02EC25F0E55277
:1054A000010E3AD0D9CFE9FFDACFEAFFEE50ED1086
:1054B0002CE1CAEC15F0C30EE96E000EEA6E070E81
:1054C000E926000EEA22EF500F0BE82AF36EF350A4
:1054D0000F0BF36EF46EF00EEF14F310EF6EF4504A
:1054E0008C8A010EE66EDFC0E6FFE0C0E6FF000E2C
:1054F000E66EE66A010EE66EEAEC1EF0146E060E2B
:10550000E15E14508C9A030E07D0F6EC14F0DF061F
:10551000010E01E2DB06B0D5146E030EE15C02E27F
:10552000E16AE552E16E1450E552E7CFD9FF12006F
:10553000D9CFE6FFE1CFD9FFACA2FED7FD0EDBCF7E
:1055400014F0FE0EDBCF15F0E80E0D6E030E0E6E9E
:1055500014C008F015C009F08CEC33F008C014F04A
:1055600009C015F0300E1424AD6EACA2FED7FD0EAE
:10557000DBCF14F0FE0EDBCF15F0E80E0D6E030E40
:105580000E6E14C008F015C009F052EC35F004C0DE
:1055900014F005C015F0640E0D6E0E6A14C008F00C
:1055A00015C009F052EC35F008C014F009C015F030
:1055B000300E1424AD6EACA2FED7FD0EDBCF14F07E
:1055C000FE0EDBCF15F0640E0D6E0E6A14C008F0EF
:1055D00015C009F052EC35F004C014F005C015F008
:1055E0000A0E0D6E0E6A14C008F015C009F052ECD8
:1055F00035F008C014F009C015F0300E1424AD6E5B
:10560000ACA2FED7FD0EDBCF14F0FE0EDBCF15F003
:105610000A0E0D6E0E6A14C008F015C009F052ECA7
:1056200035F004C014F005C015F0300E1424AD6E32
:10563000E552E7CFD9FF1200D9CFE6FFE1CFD9FF7E
:10564000ACA2FED7FD0EDBCF14F0FE0EDBCF15F0C3
:10565000E80E0D6E030E0E6E14C008F015C009F0B2
:1056600052EC35F004C014F005C015F0640E0D6E58
:105670000E6A14C008F015C009F052EC35F008C0ED
:1056800014F009C015F0300E1424AD6EACA2FED794
:10569000FD0EDBCF14F0FE0EDBCF15F0640E0D6EA9
:1056A0000E6A14C008F015C009F052EC35F004C0C1
:1056B00014F005C015F00A0E0D6E0E6A14C008F045
:1056C00015C009F052EC35F008C014F009C015F00F
:1056D000300E1424AD6EACA2FED7FD0EDBCF14F05D
:1056E000FE0EDBCF15F00A0E0D6E0E6A14C008F028
:1056F00015C009F052EC35F004C014F005C015F0E7
:10570000300E1424AD6EACA2FED72C0EAD6EACA242
:10571000FED7FB0EDBCF14F0FC0EDBCF15F0E80E4E
:105720000D6E030E0E6E14C008F015C009F08CEC5F
:1057300033F008C014F009C015F0300E1424AD6E1B
:10574000ACA2FED7FB0EDBCF14F0FC0EDBCF15F0C6
:10575000E80E0D6E030E0E6E14C008F015C009F0B1
:1057600052EC35F004C014F005C015F0640E0D6E57
:105770000E6A14C008F015C009F052EC35F008C0EC
:1057800014F009C015F0300E1424AD6EACA2FED793
:10579000FB0EDBCF14F0FC0EDBCF15F0640E0D6EAC
:1057A0000E6A14C008F015C009F052EC35F004C0C0
:1057B00014F005C015F00A0E0D6E0E6A14C008F044
:1057C00015C009F052EC35F008C014F009C015F00E
:1057D000300E1424AD6EACA2FED7FB0EDBCF14F05E
:1057E000FC0EDBCF15F00A0E0D6E0E6A14C008F029
:1057F00015C009F052EC35F004C014F005C015F0E6
:10580000300E1424AD6EACA2FED70A0EAD6EE5527A
:10581000E7CFD9FF1200948E949C240EAC6E900EAC
:10582000AB6E080EB86EB06A680EAF6E9F8AF26AF1
:105830009D9A1200D9CFE6FFE1CFD9FF9E9A9EAA8A
:10584000FED7FD0EDBCFE9FFFE0EDBCFEAFFAECFCA
:10585000EFFFFD0EDBCFE9FFFE0EDBCFEAFFEF50DF
:1058600001E106D0FD0EDB2AFE0E01E3DB2AE7D7BD
:10587000E552E7CFD9FF1200D9CFE6FFE1CFD9FF3C
:10588000FD0EDBCFE9FFFE0EDBCFEAFFEF5010E0AD
:10589000ACA2FED7FD0EDBCFE9FFFE0EDBCFEAFFA9
:1058A000EF50AD6EFD0EDB2AFE0E01E3DB2AE8D7DA
:1058B000E552E7CFD9FF1200D9CFE6FFE1CFD9FFFC
:1058C000ACA2FED7FE0EDB50AD6EE552E7CFD9FF9E
:1058D0001200D9CFE6FFE1CFD9FFFD0EDBCFF6FFF7
:1058E000FE0EDBCFF7FF0800F55011E0ACA2FED7AB
:1058F000FD0EDBCFF6FFFE0EDBCFF7FF0800F55005
:10590000AD6EFD0EDB2AFE0E01E3DB2AE6D7E55283
:10591000E7CFD9FF1200D9CFE6FFE1CFD9FF020EC2
:10592000E1269E0EDE6E640EDD6EDECFF6FFDDCF6D
:10593000F7FF0800F5500EE0ACA2FED7DECFF6FF71
:10594000DDCFF7FF0800F550AD6EDF2A010E01E351
:10595000DB2AEBD7020EE15C02E2E16AE552E16E7E
:10596000E552E7CFD9FF1200D9CFE6FFE1CFD9FF4B
:10597000ACA2FED7FE0EDB50AD6EE552E7CFD9FFED
:0C5980001200ACA2FED70A0EAD6E1200A1
:04598C00DACFE4FF8B
:10599000E2CFDAFFE9CFE4FFEACFE4FFF6CFE4FF9E
:1059A000F7CFE4FFF5CFE4FFF3CFE4FFF4CFE4FF5C
:1059B000FACFE4FF00EE00F0140EE80403E3EECFAC
:1059C000E4FFFBD700EE14F00C0EE80403E3EECF87
:1059D000E4FFFBD7E652D9CFE6FFE1CFD9FFE6528D
:1059E000F0A259D0DF6AFFEC15F081B453D0FFEC80
:1059F00015F081B44FD0CAEC15F081B44BD06EDBFA
:105A0000F29E8C8C8C908C948C928C960001B85168
:105A100001E0FF00FFEC15F0E66AB4EC2CF0E55273
:105A20004E0EE66E2CEC26F0E552010EE66E02EC10
:105A300025F0E552800EE66E02EC25F0E552E20E0E
:105A4000E66E630EE66E40EC25F0E552E55295EC0D
:105A500015F0938C81BC08D0DF2A2BEC15F0280EB2
:105A6000DF5C01E101D0F6D72BEC15F0E66AB4EC6F
:105A70002CF0E552939A8A9A938EDF6A81AE09D010
:105A80002BEC15F0DF2A8A7A640EDF5C01E18C983A
:105A9000F5D78C98F092E552E552E7CFD9FFE55261
:105AA00000EE1FF00C0EE80403E3E5CFEDFFFBD79B
:105AB00000EE13F0140EE80403E3E5CFEDFFFBD78F
:105AC000E5CFFAFFE5CFF4FFE5CFF3FFE5CFF5FF34
:105AD000E5CFF7FFE5CFF6FFE5CFEAFFE5CFE9FF3A
:105AE000E5CFDAFF1100D8CFE4FFE0CFE4FFE46EAA
:105AF000DACFE4FFE2CFDAFFE652E552E5CFDAFF94
:105B0000E550E5CFE0FFE5CFD8FF10000001CA5116
:105B10000F0B04082AE20001B86B010EE66E000EBE
:105B2000E66EE66AB9C0E6FFBAC0E6FFE66AEAECEE
:105B30001EF0146E060EE15E1450F092F088CEDA7C
:105B4000080EE66EADEC14F0E5528150100B07E044
:105B50008150080B04E08C7A60EC15F0F6D7E66A09
:105B6000ADEC14F0E5528C9AFF00120095988C88E9
:105B7000959C8C8CA1DB7EEC24F09BEC16F04E0EF9
:105B8000E66E2CEC26F0E552010EE66EA70EE66EF0
:105B9000630EE66EB80EE66E630EE66E010EE66EFE
:105BA000EAEC1EF0146E060EE15E14500001B86BB4
:105BB0000001C391C393C395C397C399C39BC39D6E
:105BC000C39FC491C493C495C497C499C49BC49DF6
:105BD000C49FC591C593C595C597C599C59BC59DDE
:105BE000C59FC691C693C695C697C699C69BC69DC6
:105BF000C69FC791C793C795C797C799C79BC79DAE
:105C0000C79FC891C893C895C897C899C89BC89D95
:105C1000C89FC991C993C995C997C999C99BC99D7D
:105C2000C99FCA91CA93CA95CA97CA99CA9BCA9D65
:105C3000CA9FCB91CB93CB95CB97CB99CB9BCB9D4D
:105C4000CB9FCC91CC93CC95CC97CC99CC9BCC9D35
:105C5000CC9FCD91CD93CD95CD97E66AADEC14F068
:105C6000E552010EE66EC4EC14F0E5520001E66F59
:105C700095EC15F0E66AC4EC14F0E5520001E16F12
:105C800095EC15F0020EE66EC4EC14F0E55200013E
:105C9000E26F33EC1DF06CEC26F0F28AF294D0A89F
:105CA00000D00001E10503E10001D86B02D081ECD6
:105CB00027F0E66A000EE66EE66A9B0EE66E630E5D
:105CC000E66E010EE66EEAEC1EF0146E060EE15E64
:105CD000145081A805D081B602D0F6EC13F0F9D7A4
:105CE00081A8FED70001010EB86FD3D97EEC1FF05A
:105CF0008986D2D8899660EC15F00001BD5102E08A
:105D000055D801D08ED860EC15F00FEC28F0F2D900
:105D1000000904E00001010EBD6F03D00001BD6B5E
:105D200080D80001D80504E1E66AB4EC2CF0E55215
:105D300048D9DBD71200D9CFE6FFE1CFD9FF020E59
:105D4000E126DE6ADD6A898A82A426D0DF2A010E76
:105D500001E3DB2A33EC16F0D9CFE9FFDACFEAFF13
:105D6000700EEE1802E1170EED1815E1F092F088B2
:105D7000050EE66E8B0EE66E630EE66E000EE66EA8
:105D8000E66A010EE66EEAEC1EF0146E060EE15EA7
:105D900014504AEC0DF0D8D7020EE15C02E2E16A41
:105DA000E552E16EE552E7CFD9FF1200D9CFE6FF09
:105DB000E1CFD9FF020EE126DE6ADD6A898884A47C
:105DC00026D0DF2A010E01E3DB2A33EC16F0D9CF0F
:105DD000E9FFDACFEAFF700EEE1802E1170EED18B8
:105DE00015E1F092F088020EE66E7A0EE66E630E12
:105DF000E66E000EE66EE66A010EE66EEAEC1EF056
:105E0000146E060EE15E14504AEC0DF0D8D7020E67
:105E1000E15C02E2E16AE552E16EE552E7CFD9FFCB
:105E20001200D9CFE6FFE1CFD9FF020EE126DE6AEC
:105E3000DD6A899884B426D0DF2A010E01E3DB2ACB
:105E400033EC16F0D9CFE9FFDACFEAFF700EEE1887
:105E500002E1170EED1815E1F092F088020EE66EE1
:105E60006B0EE66E630EE66E000EE66EE66A010EDF
:105E7000E66EEAEC1EF0146E060EE15E14504AEC7B
:105E80000DF0D8D7020EE15C02E2E16AE552E16E64
:105E9000E552E7CFD9FF1200D9CFE6FFE1CFD9FF16
:105EA000040EE126DE6ADD6A050EF36E020EF3CF04
:105EB000DBFF030EDB6A8D8082B279D0DF2A010E10
:105EC00001E3DB2A33EC16F0D9CFE9FFDACFEAFFA2
:105ED000880EEE1802E1130EED1868E1020EDBCF1A
:105EE00014F0DB06030EDBCF15F001E2DB061450E5
:105EF000151031E08D90DE6ADD6A82B026D0DF2A8F
:105F0000010E01E3DB2A33EC16F0D9CFE9FFDACF3B
:105F1000EAFF700EEE1802E1170EED1815E1E66AC1
:105F20005A0EE66E630EE66E000EE66EE66A010E2F
:105F3000E66EEAEC1EF0146E060EE15E1450F0926E
:105F4000F08889964AEC0DF0D8D7DE6ADD6A89863A
:105F50008D80B2D72BD0E66A490EE66E630EE66EF0
:105F6000000EE66EE66A010EE66EEAEC1EF0146EB6
:105F7000060EE15E1450F092F0888996AFD82FECAF
:105F80000DF0CAEC15F04E0EE66E2CEC26F0E55244
:105F90007EEC1FF0DE6ADD6A050EF36E020EF3CFB3
:105FA000DBFF030EDB6A89868D8086D785D7040EDA
:105FB000E15C02E2E16AE552E16EE552E7CFD9FF2A
:105FC0001200D9CFE6FFE1CFD9FF020EE126DE6A4B
:105FD000DD6A899A8D90DE6ADD6A82B026D0DF2A7A
:105FE000010E01E3DB2A33EC16F0D9CFE9FFDACF5B
:105FF000EAFF100EEE1802E1270EED1815E1F092FF
:10600000F088050EE66E5A0EE66E630EE66E000E22
:10601000E66EE66A010EE66EEAEC1EF0146E060EFF
:10602000E15E14504AEC0DF0D8D7DE6ADD6A82B426
:1060300026D0DF2A010E01E3DB2A33EC16F0D9CF9C
:10604000E9FFDACFEAFF700EEE1802E1170EED1845
:1060500015E1F092F088050EE66E390EE66E630EDD
:10606000E66E000EE66EE66A010EE66EEAEC1EF0E3
:10607000146E060EE15E14504AEC0DF0D8D7020EF5
:10608000E15C02E2E16AE552E16EE552E7CFD9FF59
:10609000120082B81ED00001BE5119E1F092F088C2
:1060A0001DD8080EE66EADEC14F0E55205EC24F0B8
:1060B0008C9AE66AADEC14F0E55281A8FED7000197
:1060C000BE6B4E0EE66E2CEC26F0E55201D0BE07FC
:1060D00003D08C9A0001BE6B120012008C9AAAECBD
:1060E00014F0899A8D9089988996E66AADEC14F03F
:1060F000E5521200D9CFE6FFE1CFD9FF020EE1262B
:10610000DF6ADE52030EDD6E0001B02B000EB123FC
:10611000B223B323010EDBCFF3FFDB06F3500009FC
:1061200001E195D00001D80501E090D00001E251D5
:1061300001E08CD0010EDB5006E0140EE66EB4ECEC
:106140002CF0E55205D0130EE66EB4EC2CF0E552BF
:106150004DEC27F0000935E0010EDB5006E0140E8F
:10616000E66EB4EC2CF0E55205D0130EE66EB4ECFE
:106170002CF0E5524DEC27F0000923E0010EDB5036
:1061800006E0140EE66EB4EC2CF0E55205D0130ECA
:10619000E66EB4EC2CF0E5524DEC27F0000911E06E
:1061A000E66A260EE66E630EE66E000EE66EE66AA0
:1061B000E66AEAEC1EF0146E060EE15E14504AEC3C
:1061C0000DF00FEC28F020EC28F0DF6EDF501BE123
:1061D000E66ABFC0E6FFC0C0E6FF000EE66EE66AF4
:1061E000010EE66EEAEC1EF0146E060EE15E14502F
:1061F0000001B42B000EB523B623B7237EEC1FF0AD
:10620000000E44D023D0DF0403E1010E3FD01ED0A6
:10621000020EDF5C04E10001BD5138D017D0030E3F
:10622000DF5C12E1E66A000EE66EE66A1D0EE66EBF
:10623000630EE66EE66AEAEC1EF0146E060EE15E90
:10624000145060EC15F002D0010E20D063D7010E7F
:10625000E66EBBC0E6FFBCC0E6FF0C0EE66E630E4A
:10626000E66E010EE66EEAEC1EF0146E060EE15EBE
:1062700014508150100B07E08150080B04E08C7A19
:1062800060EC15F0F6D78C9A010E00D0146E020E59
:10629000E15C02E2E16AE552E16E1450E552E7CFBB
