:020000040000FA
:0600000072EF1AF012007D
:10080000030024350000600000000F0000001B35CD
:10081000000084000000090000001A350000940068
:06082000000001000000D1
:0A082600D9CFE6FFE1CFD9FFFE0EA7
:10083000DB5005E0010EE66E2BEC0AF0E552D950D4
:10084000FC0FE96EFF0EDA20EA6EEE50ED100FE0BD
:10085000800EE66E2BEC0AF0E552FC0EDBCFE6FFD5
:10086000FD0EDBCFE6FFADEC0AF0E552E552D950C4
:10087000FA0FE96EFF0EDA20EA6EEE50ED100FE08F
:10088000C00EE66E2BEC0AF0E552FA0EDBCFE6FF67
:10089000FB0EDBCFE6FFADEC0AF0E552E552F90EB8
:1008A000DBCFF3FFDB06F350000903E098EC15F013
:1008B000F6D7E552E7CFD9FF1200D9CFE6FFE1CF57
:1008C000D9FFFE0EDB5005E0010EE66E2BEC0AF0C0
:1008D000E552D950FC0FE96EFF0EDA20EA6EEE50B9
:1008E000ED100FE0800EE66E2BEC0AF0E552FC0EE8
:1008F000DBCFE6FFFD0EDBCFE6FF14EC0BF0E5529D
:10090000E552D950FA0FE96EFF0EDA20EA6EEE508A
:10091000ED100FE0C00EE66E2BEC0AF0E552FA0E79
:10092000DBCFE6FFFB0EDBCFE6FF14EC0BF0E5526E
:10093000E552F90EDBCFF3FFDB06F350000903E0CD
:1009400098EC15F0F6D7E552E7CFD9FF1200D9CFD2
:10095000E6FFE1CFD9FF150EE12662C0DFFF010EF1
:1009600063C0DBFF020E64C0DBFF030E65C0DBFF6C
:10097000540EF36E040EF3CFDBFFD9CFE9FFDACFCD
:10098000EAFFEECF10F0EECF11F0EECF12F0EFCF86
:1009900013F00A0E0B6E0C6A0D6A0E6A10C006F098
:1009A00011C007F012C008F013C009F001EC1AF0F2
:1009B00002C010F003C011F004C012F005C013F023
:1009C000300E1026000E1122122213220B0E10C020
:1009D000DBFFD9CFE9FFDACFEAFFEECF06F0EECFAB
:1009E00007F0EECF08F0EFCF09F00A0E0B6E0C6A9D
:1009F0000D6A0E6A01EC1AF006C0DEFF07C0DEFFCA
:100A000008C0DEFF09C0DDFFDD52DD52D9CFE9FFAE
:100A1000DACFEAFFEECF10F0EECF11F0EECF12F00A
:100A2000EFCF13F00A0E0B6E0C6A0D6A0E6A10C03F
:100A300006F011C007F012C008F013C009F001EC75
:100A40001AF002C010F003C011F004C012F005C08B
:100A500013F0300E1026000E1122122213220A0E5D
:100A600010C0DBFFD9CFE9FFDACFEAFFEECF06F007
:100A7000EECF07F0EECF08F0EFCF09F00B6E0C6A67
:100A80000D6A0E6A01EC1AF006C0DEFF07C0DEFF39
:100A900008C0DEFF09C0DDFFDD52DD52D9CFE9FF1E
:100AA000DACFEAFFEECF10F0EECF11F0EECF12F07A
:100AB000EFCF13F00A0E0B6E0C6A0D6A0E6A10C0AF
:100AC00006F011C007F012C008F013C009F001ECE5
:100AD0001AF002C010F003C011F004C012F005C0FB
:100AE00013F0300E1026000E112212221322090ECE
:100AF00010C0DBFFD9CFE9FFDACFEAFFEECF06F077
:100B0000EECF07F0EECF08F0EFCF09F00A0E0B6E34
:100B10000C6A0D6A0E6A01EC1AF006C0DEFF07C00F
:100B2000DEFF08C0DEFF09C0DDFFDD52DD52D9CF98
:100B3000E9FFDACFEAFFEECF10F0EECF11F0EECF03
:100B400012F0EFCF13F00A0E0B6E0C6A0D6A0E6AEC
:100B500010C006F011C007F012C008F013C009F071
:100B600001EC1AF002C010F003C011F004C012F042
:100B700005C013F0300E1026000E1122122213228F
:100B8000080E10C0DBFFD9CFE9FFDACFEAFFEECFC6
:100B900006F0EECF07F0EECF08F0EFCF09F00A0E27
:100BA0000B6E0C6A0D6A0E6A01EC1AF006C0DEFFCD
:100BB00007C0DEFF08C0DEFF09C0DDFFDD52DD52E9
:100BC000D9CFE9FFDACFEAFFEECF10F0EECF11F088
:100BD000EECF12F0EFCF13F00A0E0B6E0C6A0D6A17
:100BE0000E6A10C006F011C007F012C008F013C062
:100BF00009F001EC1AF002C010F003C011F004C0BB
:100C000012F005C013F0300E1026000E1122122231
:100C10001322070E10C0DBFFD9CFE9FFDACFEAFFBE
:100C2000EECF06F0EECF07F0EECF08F0EFCF09F0F1
:100C30000A0E0B6E0C6A0D6A0E6A01EC1AF006C001
:100C4000DEFF07C0DEFF08C0DEFF09C0DDFFDD52AA
:100C5000DD52D9CFE9FFDACFEAFFEECF10F0EECFC9
:100C600011F0EECF12F0EFCF13F00A0E0B6E0C6AFC
:100C70000D6A0E6A10C006F011C007F012C008F02D
:100C800013C009F001EC1AF002C010F003C011F01B
:100C900004C012F005C013F0300E1026000E112211
:100CA00012221322060E10C0DBFFD9CFE9FFDACFE4
:100CB000EAFFEECF06F0EECF07F0EECF08F0EFCF71
:100CC00009F00A0E0B6E0C6A0D6A0E6A01EC1AF03E
:100CD00006C0DEFF07C0DEFF08C0DEFF09C0DDFF83
:100CE000DD52DD52D9CFE9FFDACFEAFFEECF10F0C7
:100CF000EECF11F0EECF12F0EFCF13F00A0E0B6E25
:100D00000C6A0D6A0E6A10C006F011C007F012C01E
:100D100008F013C009F001EC1AF002C010F003C093
:100D200011F004C012F005C013F0300E1026000EB2
:100D3000112212221322050E10C0DBFFD9CFE9FFCA
:100D4000DACFEAFFEECF06F0EECF07F0EECF08F0F5
:100D5000EFCF09F00A0E0B6E0C6A0D6A0E6A01ECF9
:100D60001AF006C0DEFF07C0DEFF08C0DEFF09C0C4
:100D7000DDFFDD52DD527C0EF36E0C0EF3CFDBFF98
:100D800064C0DFFF010E65C0DBFF020E66C0DBFF43
:100D9000030E67C0DBFF500EF36E0D0EF3CFDBFFCB
:100DA000D9CFE9FFDACFEAFFEECF10F0EECF11F0A6
:100DB000EECF12F0EFCF13F00A0E0B6E0C6A0D6A35
:100DC0000E6A10C006F011C007F012C008F013C080
:100DD00009F001EC1AF002C010F003C011F004C0D9
:100DE00012F005C013F0300E1026000E1122122250
:100DF0001322130E10C0DBFFD9CFE9FFDACFEAFFD1
:100E0000EECF06F0EECF07F0EECF08F0EFCF09F00F
:100E10000A0E0B6E0C6A0D6A0E6A01EC1AF006C01F
:100E2000DEFF07C0DEFF08C0DEFF09C0DDFFDD52C8
:100E3000DD52D9CFE9FFDACFEAFFEECF10F0EECFE7
:100E400011F0EECF12F0EFCF13F00A0E0B6E0C6A1A
:100E50000D6A0E6A10C006F011C007F012C008F04B
:100E600013C009F001EC1AF002C010F003C011F039
:100E700004C012F005C013F0300E1026000E11222F
:100E800012221322120E10C0DBFFD9CFE9FFDACFF6
:100E9000EAFFEECF06F0EECF07F0EECF08F0EFCF8F
:100EA00009F00A0E0B6E0C6A0D6A0E6A01EC1AF05C
:100EB00006C0DEFF07C0DEFF08C0DEFF09C0DDFFA1
:100EC000DD52DD52D9CFE9FFDACFEAFFEECF10F0E5
:100ED000EECF11F0EECF12F0EFCF13F00A0E0B6E43
:100EE0000C6A0D6A0E6A10C006F011C007F012C03D
:100EF00008F013C009F001EC1AF002C010F003C0B2
:100F000011F004C012F005C013F0300E1026000ED0
:100F1000112212221322110E10C0DBFFD9CFE9FFDC
:100F2000DACFEAFFEECF06F0EECF07F0EECF08F013
:100F3000EFCF09F00A0E0B6E0C6A0D6A0E6A01EC17
:100F40001AF006C0DEFF07C0DEFF08C0DEFF09C0E2
:100F5000DDFFDD52DD52D9CFE9FFDACFEAFFEECF78
:100F600010F0EECF11F0EECF12F0EFCF13F00A0E2B
:100F70000B6E0C6A0D6A0E6A10C006F011C007F005
:100F800012C008F013C009F001EC1AF002C010F012
:100F900003C011F004C012F005C013F0300E10268B
:100FA000000E112212221322100E10C0DBFFD9CF27
:100FB000E9FFDACFEAFFEECF06F0EECF07F0EECF93
:100FC00008F0EFCF09F00A0E0B6E0C6A0D6A0E6A7C
:100FD00001EC1AF006C0DEFF07C0DEFF08C0DEFF2E
:100FE00009C0DDFFDD52DD52D9CFE9FFDACFEAFFDC
:100FF000EECF10F0EECF11F0EECF12F0EFCF13F0F6
:101000000A0E0B6E0C6A0D6A0E6A10C006F011C053
:1010100007F012C008F013C009F001EC1AF002C08A
:1010200010F003C011F004C012F005C013F0300E30
:101030001026000E1122122213220F0E10C0DBFF09
:10104000D9CFE9FFDACFEAFFEECF06F0EECF07F017
:10105000EECF08F0EFCF09F00A0E0B6E0C6A0D6AA6
:101060000E6A01EC1AF006C0DEFF07C0DEFF08C002
:10107000DEFF09C0DDFFDD52DD52D9CFE9FFDACF57
:10108000EAFFEECF10F0EECF11F0EECF12F0EFCF7F
:1010900013F00A0E0B6E0C6A0D6A0E6A10C006F091
:1010A00011C007F012C008F013C009F001EC1AF0EB
:1010B00002C010F003C011F004C012F005C013F01C
:1010C000300E1026000E1122122213220E0E10C016
:1010D000DBFFD9CFE9FFDACFEAFFEECF06F0EECFA4
:1010E00007F0EECF08F0EFCF09F00A0E0B6E0C6A96
:1010F0000D6A0E6A01EC1AF006C0DEFF07C0DEFFC3
:1011000008C0DEFF09C0DDFFDD52DD52D9CFE9FFA7
:10111000DACFEAFFEECF06F0EECF07F0EECF08F021
:10112000EFCF09F00A0E0B6E0C6A0D6A0E6A01EC25
:101130001AF006C0DEFF07C0DEFF08C0DEFF09C0F0
:10114000DDFFDD52DD52140EDB6A800EE66E83D9C0
:10115000E552D950040FE66E000EDA20E66E64DA2E
:10116000E552E552150EE15C02E2E16AE552E16EFC
:10117000E552E7CFD9FF1200D9CFE6FFE1CFD9FF83
:10118000020EE126DC0EDE6E050EDD6E080EE66E4A
:1011900029EC15F0E55281A852D0DECF10F0DDCF5A
:1011A00011F0F40E0D6E010E0E6E10C008F011C09D
:1011B00009F03CEC1AF004C010F005C011F010501A
:1011C000111032E18C7AD9CFE9FFDACFEAFFDC0ED9
:1011D000EE1802E1050EED1816E1E66AD40EE66E91
:1011E000310EE66ED60EE66E310EE66E010EE66E3E
:1011F00013EC04F0106E060EE15E1050E66A29EC66
:1012000015F0E55211D0D9CFE9FFDACFEAFFB80ED9
:10121000EE1802E10B0EED1807E1DE6ADD6A080E3A
:10122000E66E29EC15F0E552DF2A010E01E3DB2A18
:10123000D4EC16F0D4EC16F0D4EC16F0ACD7E66A89
:1012400029EC15F0E5528C9A020EE15C02E2E16AAB
:10125000E552E16EE552E7CFD9FF1200D9CFE6FFA4
:10126000E1CFD9FF020EE126DC0EDE6E050EDD6E4B
:10127000DECF10F0DDCF11F0F40E0D6E010E0E6E0C
:1012800010C008F011C009F03CEC1AF004C010F0D6
:1012900005C011F01050111039E18C7AD9CFE9FF57
:1012A000DACFEAFFDC0EEE1802E1050EED1811E1CF
:1012B000E66A000EE66EE66AC80EE66E310EE66E6F
:1012C000010EE66E13EC04F0106E060EE15E105097
:1012D0001DD0D9CFE9FFDACFEAFFB80EEE1802E150
:1012E0000B0EED1813E1E66AAF0EE66E310EE66EF8
:1012F000BB0EE66E310EE66E010EE66E13EC04F0E8
:10130000106E060EE15E1050DE6ADD6ADF2A010E05
:1013100001E3DB2AD4EC16F0D4EC16F0D4EC16F092
:1013200081B80DD037EC16F081B809D0E66A29EC07
:1013300015F0E5528C9A020EE15C04E201D098D7D8
:10134000E16AE552E16EE552E7CFD9FF12009392D0
:101350009390D4EC16F08A908A92D4EC16F0938293
:1013600093809D96C00EC76E280EC66EC56A770E16
:10137000C86E9D969E961200A1B6FED7C750010B6F
:1013800003E1C750040B01E0F9D79E961200040E4A
:10139000C71403E11F0EC51401E0F9D7C580C5B01D
:1013A000FED79E961200E8DFC584C5B4FED79E9690
:1013B0001200D9CFE6FFE1CFD9FFFE0EDB50C96E98
:1013C000DBDFE552E7CFD9FF1200D9CFE6FFE1CF4F
:1013D000D9FFDDDF91C0E6FFECDFE552FE0EDB500A
:1013E00000019411E66EE5DFE552DDDFE552E7CF5F
:1013F000D9FF1200D9CFE6FFE1CFD9FFFE0EDBCF38
:10140000E7FF00019051E712FE0EE7CFDBFFDB5054
:10141000FB0BE66EDADFE552020EE66E80EC1AF0A8
:10142000E552FE0EDB500409E66ECFDFE552020EF8
:10143000E66E80EC1AF0E552FE0EDB50FB0BE66E1A
:10144000C4DFE552050EE66E52EC1AF0E552E552A5
:10145000E7CFD9FF1200D9CFE6FFE1CFD9FF0001D6
:10146000906BFE0EDB50F00BE66EC4DFE552FE0E15
:10147000DB38F00BF00BE66EBDDFE552FE0EDB0451
:1014800004E0FE0EDB50020802E1D4EC16F0D4ECCE
:1014900016F0E552E7CFD9FF1200D9CFE6FFE1CF32
:1014A000D9FFFD0EDB50020A01E008D0FE0EDB5032
:1014B000C00FFF0FE66ECFDFE55207D0FE0EDB5008
:1014C000800FFF0FE66EC7DFE552E552E7CFD9FF89
:1014D0001200D9CFE6FFE1CFD9FFE652DF6A000163
:1014E000010E906FDF50E76EFD0EDBCFF6FFFE0EB4
:1014F000DBCFF7FFE750F626000EF7220800F55085
:1015000027E0DF50E76EFD0EDBCFF6FFFE0EDBCFF0
:10151000F7FFE750F626000EF7220800F550F00B13
:10152000E66E68DFE552DF50DF2AE76EFD0EDBCFA7
:10153000F6FFFE0EDBCFF7FFE750F626000EF72290
:101540000800F538F00BF00BE66E54DFE552CAD711
:10155000E552E552E7CFD9FF1200D9CFE6FFE1CF40
:10156000D9FF020EE126200EDF6E010EDB6A0001BC
:10157000906F010EDB50E76EFD0EDBCFF6FFFE0E27
:10158000DBCFF7FFE750F626000EF7220800F550F4
:101590002BE0010EDB50E76EFD0EDBCFF6FFFE0EFB
:1015A000DBCFF7FFE750F626000EF7220800F550D4
:1015B000F00BE66E1FDFE552010EDBCFF3FFDB2AF7
:1015C000F350E76EFD0EDBCFF6FFFE0EDBCFF7FF2D
:1015D000E750F626000EF7220800F538F00BF00B66
:1015E000E66E08DFE552C5D7100EF36E010EDBCFB5
:1015F000F4FFF350F45C0EE2F00EDF14E66EFADE58
:10160000E552DF38F00BF00BE66EF4DEE552010E2A
:10161000DB2AEAD7020EE15C02E2E16AE552E16E02
:10162000E552E7CFD9FF1200D9CFE6FFE1CFD9FFCE
:10163000E652DF6A0001010E906FDF50E76EFD0E8B
:10164000DBCFE9FFFE0EDBCFEAFFE750E926000E15
:10165000EA22EF5025E0DF50E76EFD0EDBCFE9FF19
:10166000FE0EDBCFEAFFE750E926000EEA22EF503C
:10167000F00BE66EBFDEE552DF50DF2AE76EFD0EAF
:10168000DBCFE9FFFE0EDBCFEAFFE750E926000ED5
:10169000EA22EF38F00BF00BE66EACDEE552CDD768
:1016A000E552E552E7CFD9FF1200D9CFE6FFE1CFEF
:1016B000D9FFFE0EDBCF91F0E66A87DEE5526CECD7
:1016C00016F0030EE66EC7DEE5526CEC16F0030E64
:1016D000E66EC1DEE5526CEC16F0030EE66EBBDE84
:1016E000E5526CEC16F0020EE66EB5DEE5526CECDF
:1016F00016F0280EE66EAFDEE5526CEC16F00C0E1E
:10170000E66EA9DEE5526CEC16F0010EE66EA3DE85
:10171000E5526CEC16F0060EE66E9DDEE5526CECC2
:0A17200016F0E552E7CFD9FF1200E2
:06172A000001240E8F6F88
:101730008FC0ACFF900EAB6E080EB86EB06A680E2C
:10174000AF6E1200E66AF40EE66E300EE66E000E24
:10175000E66EE66A010EE66E13EC04F0106E060EFD
:10176000E15E10508150100B1FE18150080B1CE10D
:101770000001010E8D6FE66A8DC0E6FF47EC15F0A3
:10178000E552E552020EE66EF00EE66E300EE66EA3
:10179000000EE66EE66A010EE66E13EC04F0106EC3
:1017A000060EE15E105002D081B4DCD71200E66A6A
:1017B000E70EE66E300EE66E000EE66EE66A010E8D
:1017C000E66E13EC04F0106E060EE15E10508150D0
:1017D000100B1EE18150080B1BE100018D6BE66AC6
:1017E0008DC0E6FF47EC15F0E552E552020EE66EBD
:1017F000E40EE66E300EE66E000EE66EE66A010E50
:10180000E66E13EC04F0106E060EE15E105002D08E
:1018100081B4DDD71200E66ADC0EE66E300EE66EAD
:10182000000EE66EE66A010EE66E13EC04F0106E32
:10183000060EE15E10508150100B20E18150080B24
:101840001DE10001010E8E6F020EE66E8EC0E6FFF6
:1018500047EC15F0E552E552020EE66EF00EE66E2C
:10186000300EE66E000EE66EE66A010EE66E13ECD2
:1018700004F0106E060EE15E105002D081B4DBD78A
:101880001200E66AD50EE66E300EE66E000EE66ECB
:10189000E66A010EE66E13EC04F0106E060EE15ED1
:1018A00010508150100B1FE18150080B1CE100010A
:1018B0008E6B020EE66E8EC0E6FF47EC15F0E55229
:1018C000E552020EE66EE40EE66E300EE66E000E97
:1018D000E66EE66A010EE66E13EC04F0106E060E7C
:1018E000E15E105002D081B4DCD71200D9CFE6FF00
:1018F000E1CFD9FF020EE126F40EDE6E010EDD6EA1
:1019000081AC1AD081AC18D0D9CFE9FFDACFEAFF89
:10191000EE50ED1002E1010E11D08150100B05E1E7
:101920008150080B02E1000E09D063EC15F0DF06D0
:10193000010E01E2DB06E6D7000E00D0106E020EAB
:10194000E15C02E2E16AE552E16E1050E552E7CF58
:10195000D9FF1200D9CFE6FFE1CFD9FF020EE12671
:10196000900EDE6E650EDD6E81BC38D0E66A000E2C
:10197000E66EE66AC80EE66E300EE66E010EE66EA4
:1019800013EC04F0106E060EE15E105081BC26D000
:10199000D9CFE9FFDACFEAFFEE50ED1011E1E66AA8
:1019A000BF0EE66E300EE66E000EE66EE66AE66A82
:1019B00013EC04F0106E060EE15E1050C8EC19F046
:1019C0008150100B04E18150080B01E10AD063EC57
:1019D00015F0DF06010E01E2DB06D8D70001010E8B
:1019E000846F020EE15C02E2E16AE552E16EE552CB
:1019F000E7CFD9FF1200D9CFE6FFE1CFD9FF030E21
:101A0000E126B80EF36E010EF3CFDBFF0B0EF36E83
:101A1000020EF3CFDBFF8150040B03E18150080B72
:101A20001BE09EAA18D09E9AAE50DF6E530EDF5C6C
:101A300002E1000E11D0A0EC16F0010EDBCF10F089
:101A4000DB06020EDBCF11F001E2DB0610501110B5
:101A500002E1010E01D0DFD7106E030EE15C02E25D
:101A6000E16AE552E16E1050E552E7CFD9FF12006E
:101A7000D9CFE6FFE1CFD9FFE652AB989E9AAB886B
:101A8000AE50DF6EAE50DF6EE552E552E7CFD9FFC4
:101A90001200D9CFE6FFE1CFD9FF030EE126E00E19
:101AA000DE6E2E0EDD6E020EDB6A9E9AE66A000E78
:101AB000E66EE66A8C0EE66E300EE66EE66A13ECB3
:101AC00004F0106E060EE15E10508150100B04E120
:101AD0008150080B01E149D29EAA0DD29E9A020EB6
:101AE000AECFDBFFDB50420A01E1CAD10E0A01E1B1
:101AF0008CD11D0A01E15DD1150A01E133D1070A3C
:101B000001E107D10D0A01E1CED0060A01E195D02D
:101B10001B0A65E0010A35E0130A2CE037EC16F0E9
:101B20006F0EE96E000EEA6E070EE926000EEA223D
:101B3000EF500F0BE82AF36EF3500F0BF36EF46EB9
:101B4000F00EEF14F310EF6EF4508C8A010EE66E77
:101B500089C0E6FF8AC0E6FF000EE66EE66A010E67
:101B6000E66E13EC04F0106E060EE15E10508C9AD7
:101B7000030EFBD100017691769376957697000E51
:101B8000F4D137EC16F06F0EE96E000EEA6E070E18
:101B9000E926000EEA22EF500F0BE82AF36EF3500D
:101BA0000F0BF36EF46EF00EEF14F310EF6EF450B3
:101BB0008C8A37EC16F0020EE66E830EE66E300E5F
:101BC000E66E000EE66EE66A010EE66E13EC04F0B9
:101BD000106E060EE15E10508C9A010EC6D137ECE5
:101BE00016F06F0EE96E000EEA6E070EE926000E83
:101BF000EA22EF500F0BE82AF36EF3500F0BF36E4F
:101C0000F46EF00EEF14F310EF6EF4508C8A37EC94
:101C100016F0020EE66E750EE66E300EE66E000EE3
:101C2000E66EE66A010EE66E13EC04F0106E060E28
:101C3000E15E10508C9A030E98D137EC16F06F0EBF
:101C4000E96E000EEA6E070EE926000EEA22EF505A
:101C50000F0BE82AF36EF3500F0BF36EF46EF00ED9
:101C6000EF14F310EF6EF450010EE66E68C0E6FF5D
:101C700069C0E6FF640EE66E300EE66E010EE66E9B
:101C800013EC04F0106E060EE15E10508150100B44
:101C900007E08150080B04E08C7ACDEC15F0F6D704
:101CA0008C9A010E62D137EC16F06F0EE96E000EC1
:101CB000EA6E070EE926000EEA22EF500F0BE82A23
:101CC000F36EF3500F0BF36EF46EF00EEF14F3108F
:101CD000EF6EF450010EE66E68C0E6FF69C0E6FFE5
:101CE000560EE66E300EE66E010EE66E13EC04F054
:101CF000106E060EE15E10508150100B07E081500F
:101D0000080B04E08C7ACDEC15F0F6D78C9A010E16
:101D10002CD137EC16F08C8A0CEC14F0010EE66E28
:101D200068C0E6FF69C0E6FF440EE66E300EE66E60
:101D3000010EE66E13EC04F0106E060EE15E10501C
:101D40008150100B07E08150080B04E08C7ACDEC39
:101D500015F0F6D78C9A010EE66E2BEC0AF0E552E0
:101D6000020E03D137EC16F08C8A010EE66E68C0C5
:101D7000E6FF69C0E6FF360EE66E300EE66E010E37
:101D8000E66E13EC04F0106E060EE15E105081500A
:101D9000100B07E08150080B04E08C7ACDEC15F0B5
:101DA000F6D78C9A010EE66E2BEC0AF0E552020E85
:101DB000DCD037EC16F06F0EE96E000EEA6E070EFF
:101DC000E926000EEA22EF500F0BE82AF36EF350DB
:101DD0000F0BF36EF46EF00EEF14F310EF6EF45081
:101DE0008C8A010EE66E87C0E6FF88C0E6FF000E13
:101DF000E66EE66A010EE66E13EC04F0106E060E57
:101E0000E15E10508C9A030EB0D037EC16F06F0ED6
:101E1000E96E000EEA6E070EE926000EEA22EF5088
:101E20000F0BE82AF36EF3500F0BF36EF46EF00E07
:101E3000EF14F310EF6EF450010EE66E68C0E6FF8B
:101E400069C0E6FF560EE66E300EE66E010EE66ED7
:101E500013EC04F0106E060EE15E10508150100B72
:101E600007E08150080B04E08C7ACDEC15F0F6D732
:101E70008C9A010EE66E2BEC0AF0E552010E75D03D
:101E800037EC16F06F0EE96E000EEA6E070EE926CB
:101E9000000EEA22EF500F0BE82AF36EF3500F0BFF
:101EA000F36EF46EF00EEF14F310EF6EF450010EBB
:101EB000E66E68C0E6FF69C0E6FF270EE66E300EEC
:101EC000E66E010EE66E13EC04F0106E060EE15E97
:101ED00010508150100B07E08150080B04E08C7A01
:101EE000CDEC15F0F6D78C9A010EE66E2BEC0AF0CD
:101EF000E552010E3AD0D9CFE9FFDACFEAFFEE5032
:101F0000ED102CE137EC16F06F0EE96E000EEA6E64
:101F1000070EE926000EEA22EF500F0BE82AF36EB7
:101F2000F3500F0BF36EF46EF00EEF14F310EF6E30
:101F3000F4508C8A010EE66E8BC0E6FF8CC0E6FF83
:101F4000000EE66EE66A010EE66E13EC04F0106E0B
:101F5000060EE15E10508C9A030E07D063EC15F06C
:101F6000DF06010E01E2DB06B0D5106E030EE15C68
:101F700002E2E16AE552E16E1050E552E7CFD9FF87
:101F80001200D9CFE6FFE1CFD9FFACA2FED7FD0EFC
:101F9000DBCF10F0FE0EDBCF11F0E80E0D6E030E5E
:101FA0000E6E10C008F011C009F0DBEC19F008C08B
:101FB00010F009C011F0300E1024AD6EACA2FED7A7
:101FC000FD0EDBCF10F0FE0EDBCF11F0E80E0D6E34
:101FD000030E0E6E10C008F011C009F03CEC1AF0B0
:101FE00004C010F005C011F0640E0D6E0E6A10C032
:101FF00008F011C009F03CEC1AF008C010F009C05C
:1020000011F0300E1024AD6EACA2FED7FD0EDBCF6A
:1020100010F0FE0EDBCF11F0640E0D6E0E6A10C0D4
:1020200008F011C009F03CEC1AF004C010F005C033
:1020300011F00A0E0D6E0E6A10C008F011C009F002
:102040003CEC1AF008C010F009C011F0300E10245A
:10205000AD6EACA2FED7FD0EDBCF10F0FE0EDBCFD7
:1020600011F00A0E0D6E0E6A10C008F011C009F0D2
:102070003CEC1AF004C010F005C011F0300E102432
:10208000AD6EE552E7CFD9FF1200D9CFE6FFE1CF21
:10209000D9FFACA2FED7FD0EDBCF10F0FE0EDBCFDA
:1020A00011F0E80E0D6E030E0E6E10C008F011C098
:1020B00009F03CEC1AF004C010F005C011F0640EF9
:1020C0000D6E0E6A10C008F011C009F03CEC1AF059
:1020D00008C010F009C011F0300E1024AD6EACA293
:1020E000FED7FD0EDBCF10F0FE0EDBCF11F0640E3D
:1020F0000D6E0E6A10C008F011C009F03CEC1AF029
:1021000004C010F005C011F00A0E0D6E0E6A10C06A
:1021100008F011C009F03CEC1AF008C010F009C03A
:1021200011F0300E1024AD6EACA2FED7FD0EDBCF49
:1021300010F0FE0EDBCF11F00A0E0D6E0E6A10C00D
:1021400008F011C009F03CEC1AF004C010F005C012
:1021500011F0300E1024AD6EACA2FED72C0EAD6E79
:10216000ACA2FED7FB0EDBCF10F0FC0EDBCF11F0E4
:10217000E80E0D6E030E0E6E10C008F011C009F0CF
:10218000DBEC19F008C010F009C011F0300E10247B
:10219000AD6EACA2FED7FB0EDBCF10F0FC0EDBCF9A
:1021A00011F0E80E0D6E030E0E6E10C008F011C097
:1021B00009F03CEC1AF004C010F005C011F0640EF8
:1021C0000D6E0E6A10C008F011C009F03CEC1AF058
:1021D00008C010F009C011F0300E1024AD6EACA292
:1021E000FED7FB0EDBCF10F0FC0EDBCF11F0640E40
:1021F0000D6E0E6A10C008F011C009F03CEC1AF028
:1022000004C010F005C011F00A0E0D6E0E6A10C069
:1022100008F011C009F03CEC1AF008C010F009C039
:1022200011F0300E1024AD6EACA2FED7FB0EDBCF4A
:1022300010F0FC0EDBCF11F00A0E0D6E0E6A10C00E
:1022400008F011C009F03CEC1AF004C010F005C011
:1022500011F0300E1024AD6EACA2FED70A0EAD6E9A
:10226000E552E7CFD9FF1200948E949C240EAC6EF9
:10227000900EAB6E080EB86EB06A680EAF6E9F8A95
:10228000F26A9D9A1200D9CFE6FFE1CFD9FF9E9A5C
:102290009EAAFED7FD0EDBCFE9FFFE0EDBCFEAFFE5
:1022A000AECFEFFFFD0EDBCFE9FFFE0EDBCFEAFF87
:1022B000EF5001E106D0FD0EDB2AFE0E01E3DB2A22
:1022C000E7D7E552E7CFD9FF1200D9CFE6FFE1CF3C
:1022D000D9FFFD0EDBCFE9FFFE0EDBCFEAFFEF50AB
:1022E00010E0ACA2FED7FD0EDBCFE9FFFE0EDBCF88
:1022F000EAFFEF50AD6EFD0EDB2AFE0E01E3DB2A96
:10230000E8D7E552E7CFD9FF1200D9CFE6FFE1CFFA
:10231000D9FFACA2FED7FE0EDB50AD6EE552E7CF83
:10232000D9FF1200D9CFE6FFE1CFD9FFFD0EDBCFF9
:10233000F6FFFE0EDBCFF7FF0800F55011E0ACA270
:10234000FED7FD0EDBCFF6FFFE0EDBCFF7FF08005A
:10235000F550AD6EFD0EDB2AFE0E01E3DB2AE6D75B
:10236000E552E7CFD9FF1200D9CFE6FFE1CFD9FF81
:10237000020EE126220EDE6E300EDD6EDECFF6FF9F
:10238000DDCFF7FF0800F5500EE0ACA2FED7DECFA0
:10239000F6FFDDCFF7FF0800F550AD6EDF2A010E26
:1023A00001E3DB2AEBD7020EE15C02E2E16AE552CF
:1023B000E16EE552E7CFD9FF1200D9CFE6FFE1CFBA
:1023C000D9FFACA2FED7FE0EDB50AD6EE552E7CFD3
:0E23D000D9FF1200ACA2FED70A0EAD6E1200AD
:0223DE009598D0
:1023E0008C88959C8C8C02DBA7EC09F04E0EE66E77
:1023F00055EC0BF0E552010EE66E960EE66E310ED0
:10240000E66EA20EE66E310EE66E010EE66E13EC7F
:1024100004F0106E060EE15E105095EC0BF0E66ACB
:10242000000EE66EE66A8A0EE66E310EE66E010E6C
:10243000E66E13EC04F0106E060EE15E105081A8FB
:1024400003D081B600D0FBD781A8FED78986C2D839
:102450008996CDEC15F00001605102E097D801D0CB
:10246000A7D8CDEC15F038EC0DF049EC0DF0010AD1
:1024700007E0010A01E004D00001606B99D805D0A3
:102480000001010E606F82D800D039D9DFD7120069
:10249000D8CFE4FFE0CFE4FFE46EDACFE4FFE2CF91
:1024A000DAFFE652E552E5CFDAFFE550E5CFE0FF8F
:1024B000E5CFD8FF1000000176510F0B04082AE287
:1024C0000001616B010EE66E000EE66EE66A66C004
:1024D000E6FF67C0E6FFE66A13EC04F0106E060E36
:1024E000E15E1050F092F08897D9080EE66E29EC64
:1024F00015F0E5528150100B07E08150080B04E005
:102500008C7ACDEC15F0F6D7E66A29EC15F0E55299
:102510008C9AFF001200D9CFE6FFE1CFD9FF020E5F
:10252000E126DE6ADD6A898A82A426D0DF2A010ECE
:1025300001E3DB2AA0EC16F0D9CFE9FFDACFEAFFFE
:10254000700EEE1802E1170EED1815E1F092F0880A
:10255000050EE66E5D0EE66E310EE66E000EE66E60
:10256000E66A010EE66E13EC04F0106E060EE15EF4
:102570001050C8EC19F0D8D7020EE15C02E2E16A13
:10258000E552E16EE552E7CFD9FF1200D9CFE6FF61
:10259000E1CFD9FF020EE126DE6ADD6A8988E15CBF
:1025A00002E2E16AE552E16EE552E7CFD9FF12009F
:1025B000D9CFE6FFE1CFD9FF020EE126DE6ADD6A60
:1025C0008998E15C02E2E16AE552E16EE552E7CF0B
:1025D000D9FF1200D9CFE6FFE1CFD9FF040EE126E3
:1025E000DE6ADD6A050EF36E020EF3CFDBFF030E2B
:1025F000DB6A8D8082B279D0DF2A010E01E3DB2A0B
:10260000A0EC16F0D9CFE9FFDACFEAFF880EEE187A
:1026100002E1130EED1868E1020EDBCF10F0DB06CD
:10262000030EDBCF11F001E2DB061050111031E098
:102630008D90DE6ADD6A82B026D0DF2A010E01E3CA
:10264000DB2AA0EC16F0D9CFE9FFDACFEAFF700E53
:10265000EE1802E1170EED1815E1E66A4C0EE66E73
:10266000310EE66E000EE66EE66A010EE66E13ECC3
:1026700004F0106E060EE15E1050F092F08889961C
:10268000C8EC19F0D8D7DE6ADD6A89868D80B2D7AA
:102690002BD0E66A3B0EE66E310EE66E000EE66E5D
:1026A000E66A010EE66E13EC04F0106E060EE15EB3
:1026B0001050F092F0888996AFD8ADEC19F037EC55
:1026C00016F04E0EE66E55EC0BF0E552A7EC04F05A
:1026D000DE6ADD6A050EF36E020EF3CFDBFF030E3A
:1026E000DB6A89868D8086D785D7040EE15C02E29D
:1026F000E16AE552E16EE552E7CFD9FF1200D9CF8A
:10270000E6FFE1CFD9FF020EE126DE6ADD6A899A93
:102710008D90DE6ADD6A82B026D0DF2A010E01E3E9
:10272000DB2AA0EC16F0D9CFE9FFDACFEAFF100ED2
:10273000EE1802E1270EED1815E1F092F088050E73
:10274000E66E4C0EE66E310EE66E000EE66EE66A42
:10275000010EE66E13EC04F0106E060EE15E1050F2
:10276000C8EC19F0D8D7DE6ADD6A82B426D0DF2A39
:10277000010E01E3DB2AA0EC16F0D9CFE9FFDACF96
:10278000EAFF700EEE1802E1170EED1815E1F09257
:10279000F088050EE66E2B0EE66E310EE66E000E2C
:1027A000E66EE66A010EE66E13EC04F0106E060E9D
:1027B000E15E1050C8EC19F0D8D7020EE15C02E2DD
:1027C000E16AE552E16EE552E7CFD9FF120082B827
:1027D0001ED000016A5119E1F092F0881DD8080E50
:1027E000E66E29EC15F0E5522EEC09F08C9AE66ABB
:1027F00029EC15F0E55281A8FED700016A6B4E0E58
:10280000E66E55EC0BF0E55201D06A0703D08C9AC6
:1028100000016A6B120012008C9A25EC15F0899A5F
:102820008D9089988996E66A29EC15F0E552120098
:10283000D9CFE6FFE1CFD9FF020EE126DF6ADE52F3
:10284000030EDD6E0001622B000E6323010EDBCF51
:10285000F3FFDB06F350000901E193D0000184058A
:1028600001E08ED000018E5101E08AD0010EDB50D4
:1028700006E0140EE66EDDEC11F0E55205D0130E05
:10288000E66EDDEC11F0E55276EC0CF0000935E077
:10289000010EDB5006E0140EE66EDDEC11F0E552A1
:1028A00005D0130EE66EDDEC11F0E55276EC0CF07F
:1028B000000923E0010EDB5006E0140EE66EDDECAD
:1028C00011F0E55205D0130EE66EDDEC11F0E55285
:1028D00076EC0CF0000911E0E66A180EE66E310E97
:1028E000E66E000EE66EE66AE66A13EC04F0106E21
:1028F000060EE15E1050C8EC19F038EC0DF049EC12
:102900000DF0DF6EDF5019E1E66A6BC0E6FF6CC0C8
:10291000E6FF000EE66EE66A010EE66E13EC04F0CA
:10292000106E060EE15E10500001642B000E652350
:10293000A7EC04F0000E44D023D0DF0403E1010E25
:102940003FD01ED0020EDF5C04E10001605138D0A0
:1029500017D0030EDF5C12E1E66A000EE66EE66A4F
:102960000F0EE66E310EE66EE66A13EC04F0106EA2
:10297000060EE15E1050CDEC15F002D0010E20D015
:1029800065D7010EE66E68C0E6FF69C0E6FFFE0E81
:10299000E66E300EE66E010EE66E13EC04F0106E7D
:1029A000060EE15E10508150100B07E08150080BBD
:1029B00004E08C7ACDEC15F0F6D78C9A010E00D09D
:1029C000106E020EE15C02E2E16AE552E16E105027
:1029D000E552E7CFD9FF12001200D9CFE6FFE1CFD1
:1029E000D9FFE552E7CFD9FF12001200959A8C9AD1
:1029F000969296948D948D82959095928C908C92CF
:102A0000959495968C948C96849E959C959E928098
:102A10009282928492869384938693889288939AE2
:102A2000938C938E8A9A9690929A929892968D9081
:102A3000899A899889969480948294846D966F86F9
:022A4000120082
:0E2A42008D948D826CEF16F08D948D926CEF5A
:102A500016F0D9CFE6FFE1CFD9FFE552E7CFD9FF96
:102A60001200D9CFE6FFE1CFD9FFE652FE0EDB50D0
:102A7000A96E3F0EA616A680A6B0FED7A850DF6EA0
:102A8000DF5000D0E552E552E7CFD9FF1200D9CF91
:102A9000E6FFE1CFD9FFFD0EDB50A96EFE0EDB5045
:102AA000A86E3F0EA616A684F29E550EA76EAA0E1D
:102AB000A76EA682F28EA6BAFED70ED9A694E552CC
:102AC000E7CFD9FF1200D9CFE6FFE1CFD9FF040E3F
:102AD000E126020EDB6A030EDB6A020EDBCF10F08A
:102AE000030EDBCF11F01E0E105C000E115816E223
:102AF000DE6ADD6ADECF10F0DDCF11F0490E105C2A
:102B0000000E115805E2DF2A010E01E3DB2AF2D79D
:102B1000020EDB2A030E01E3DB2ADFD7040EE15CA1
:102B200002E2E16AE552E16EE552E7CFD9FF120019
:102B3000D9CFE6FFE1CFD9FF040EE126020EDB6A12
:102B4000030EDB6A020EDBCF10F0030EDBCF11F0B9
:102B5000500E105C000E115816E2DE6ADD6ADECF00
:102B600010F0DDCF11F0FC0E105C260E115805E2BE
:102B7000DF2A010E01E3DB2AF2D7020EDB2A030E65
:102B800001E3DB2ADFD7040EE15C02E2E16AE552F1
:102B9000E16EE552E7CFD9FF1200D9CFE6FFE1CFD2
:102BA000D9FF040EE126020EDB6A030EDB6A020E79
:102BB000DBCF10F0030EDBCF11F01C0E105C000E0B
:102BC000115816E2DE6ADD6ADECF10F0DDCF11F0BB
:102BD000C00E105C260E115805E2DF2A010E01E33B
:102BE000DB2AF2D7020EDB2A030E01E3DB2ADFD752
:102BF000040EE15C02E2E16AE552E16EE552E7CFE4
:102C0000D9FF1200D9CFE6FFE1CFD9FF040EE126AC
:102C1000020EDB6A030EDB6A020EDBCF10F0030E3E
:102C2000DBCF11F00E0E105C000E115816E2DE6ABA
:102C3000DD6ADECF10F0DDCF11F0C00E105C260E85
:102C4000115805E2DF2A010E01E3DB2AF2D7020E5A
:102C5000DB2A030E01E3DB2ADFD7040EE15C02E28C
:102C6000E16AE552E16EE552E7CFD9FF1200D9CF14
:102C7000E6FFE1CFD9FF040EE126020EDB6A030E68
:102C8000DB6A020EDBCF10F0030EDBCF11F0060E75
:102C9000105C000E115816E2DE6ADD6ADECF10F01D
:102CA000DDCF11F0310E105C240E115805E2DF2A41
:102CB000010E01E3DB2AF2D7020EDB2A030E01E349
:102CC000DB2ADFD7040EE15C02E2E16AE552E16E45
:102CD000E552E7CFD9FF1200D9CFE6FFE1CFD9FF08
:102CE000040EE126020EDB6A030EDB6A020EDBCF66
:102CF00010F0030EDBCF11F0105C000E115816E23D
:102D0000DE6ADD6ADECF10F0DDCF11F0280E105C38
:102D1000230E115805E2DF2A010E01E3DB2AF2D768
:102D2000020EDB2A030E01E3DB2AE0D7040EE15C8E
:102D300002E2E16AE552E16EE552E7CFD9FF120007
:102D4000D9CFE6FFE1CFD9FF040EE126020EDB6A00
:102D5000030EDB6A020EDBCF10F0030EDBCF11F0A7
:102D6000105C000E115816E2DE6ADD6ADECF10F04C
:102D7000DDCF11F0410E105C000E115805E2DF2A84
:102D8000010E01E3DB2AF2D7020EDB2A030E01E378
:102D9000DB2AE0D7040EE15C02E2E16AE552E16E73
:102DA000E552E7CFD9FF1200D9CFE6FFE1CFD9FF37
:102DB000040EE126020EDB6A030EDB6A020EDBCF95
:102DC00010F0030EDBCF11F0105C000E115816E26C
:102DD000DE6ADD6ADECF10F0DDCF11F0B40E105CDC
:102DE000000E115805E2DF2A010E01E3DB2AF2D7BB
:102DF000020EDB2A030E01E3DB2AE0D7040EE15CBE
:102E000002E2E16AE552E16EE552E7CFD9FF120036
:102E10000B0EC16E350EC06EC26A1200D9CFE6FF2E
:102E2000E1CFD9FF100EE126DE6ADD6A020EDB6A11
:102E3000030EDB6A040EDB6A050EDB6A060EDB6A34
:102E4000070EDB6A080EDB6A090EDB6A140EF36EEE
:102E50000A0EF3CFDBFF0B0EDB6A0C0EDB6A0D0EE6
:102E6000DB6A0E0EDB6A0F0EDB6AFE0EDB50040A15
:102E700015E0070A10E0010A0BE0030A06E0010A68
:102E800001E00FD0010EC26E0CD0050EC26E09D04B
:102E9000090EC26E06D00D0EC26E03D0110EC26EA8
:102EA00000D0060EDBCF10F0070EDBCF11F00A0EBC
:102EB000DBCF12F00B0EDBCF13F01250105C13506F
:102EC00011586FE2060EDB2A070E01E3DB2AC282ED
:102ED0000000C2B2FED7C450DE6EDD6AC350E66E9B
:102EE000D950020FE96EDACFEAFFE552E750EE6EF5
:102EF000ED6ADECF10F0DDCF11F0D890103611362C
:102F0000D8901036113610C0DEFF11C0DDFF020E62
:102F1000DBCF10F0030EDBCF11F0060ED89011328C
:102F20001032E804FBE1020E10C0DBFF030E11C0FB
:102F3000DBFF020EDBCF12F0030EDBCF13F0DE500F
:102F40001210106EDD501310116E040E10C0DBFF56
:102F5000050E11C0DBFF040EDBCF10F0050EDBCF3A
:102F600011F0126A136AD9500C0FE96EDACFEAFF3A
:102F7000EE501026EE501122EE501222EE50132287
:102F80000C0E10C0DBFF0D0E11C0DBFF0E0E12C0C9
:102F9000DBFF0F0E13C0DBFF00000000000000008D
:102FA00080D70A0EDBCF10F00B0EDBCF11F0126AC8
:102FB000136A10C00BF011C00CF012C00DF013C05A
:102FC0000EF00C0EDBCF06F00D0EDBCF07F00E0E71
:102FD000DBCF08F00F0EDBCF09F001EC1AF0080E82
:102FE00006C0DBFF090E07C0DBFF080EDBCF10F0C9
:102FF000090EDBCF11F010C0F3FF11C0F4FF00D0B9
:10300000100EE15C02E2E16AE552E16EE552E7CFC3
:10301000D9FF1200F198F092F08EF088F28E120033
:0230200012009C
:0E3022002D2C2D0A004C4F4747494E472045A4
:1030300052524F522E004455504C49434154452062
:1030400051522E0052455045415445442054455359
:1030500054494E472E004C454E4754482045525245
:103060004F522E005343414E4E4552204857204563
:1030700052524F52005343414E4E455220455252F8
:103080004F520052454A454354454400524541443D
:10309000494E4720515200515220542E4F55540052
:1030A0005152204642204552524F52004E4F20511D
:1030B0005200524541444552204552524F5200530E
:1030C00042432045722D3100494E495449414C49F3
:1030D0005A494E47004F4E2051523F004F4646201E
:1030E00051523F004F4E004F4E20444154413F004B
:1030F0004F4646004F464620444154413F005152FE
:10310000204E4F54205245414441424C45200052EC
:1031100045545259494E47005342432045722D327F
:10312000004641494C0050415353004D4348205004
:103130004C54205520535455434B00434154205088
:103140004C5420465720535455434B004341542080
:10315000504C5420424B20535455434B004D434850
:1031600020504C54204420535455434B005052455A
:103170005353204D454E552F535441525400434F05
:103180004E542E204552524F520050524553532018
:103190005354415254005343414E4E4552204A49E4
:1031A0004700434152545249444745205152005030
:1031B000524553532053544152540046494C4C20DD
:1031C000535441434B202600535441434B20454D1B
:1031D000505459002000204E4F2043415254524930
:0431E000444745001B
:0C31E400D9CFE6FFE1CFD9FF040EE126B1
:1031F000020EDB6A030EDB6A020EDBCF10F0030E59
:10320000DBCF11F0D890115004E62C0E105C010EAB
:10321000115806E2020EDB2A030E01E3DB2AECD78B
:10322000000000000000040EE15C02E2E16AE552E9
:10323000E16EE552E7CFD9FF1200D9CFE6FFE1CF2B
:10324000D9FF020EE126DE6ADD6ADECF10F0DDCFA7
:1032500011F0D890115004E6880E105C130E11582E
:1032600005E2DF2A010E01E3DB2AEFD7020EE15C63
:1032700002E2E16AE552E16EE552E7CFD9FF1200C2
:10328000D9CFE6FFE1CFD9FFACA2FED7FE0EDBCF50
:10329000E6FF25EC1AF0E5520000E552E7CFD9FF32
:1032A00012000001240E936F93C0ACFF900EAB6E22
:0C32B000080EB86EB06A680EAF6E120017
:0432BC00000EF66E9C
:1032C000080EF76E000EF86E00010900F5507F6FD2
:1032D0000900F550806F03E17F6701D03DD0090000
:1032E000F5507A6F0900F5507B6F0900F5507C6F3F
:1032F00009000900F550E96E0900F550EA6E090071
:1033000009000900F5507D6F0900F5507E6F090036
:103310000900F6CF81F0F7CF82F0F8CF83F07AC0C2
:10332000F6FF7BC0F7FF7CC0F8FF00017D5302E190
:103330007E5307E00900F550EE6E7D07F8E27E0748
:10334000F9D781C0F6FF82C0F7FF83C0F8FF000104
:0A3350007F07000E805BBFD712005C
:06335A008150100B13E08E
:103360008150080B10E0E66A29EC15F0E5528C8AD2
:10337000CDEC15F0080EE66E29EC15F0E5528C9AAE
:10338000CDEC15F0EAD7E66A29EC15F0E55212000B
:103390000CEC14F0E66A29EC15F0E5528C8ACDECC1
:1033A00015F0080EE66E29EC15F0E5528C9ACDEC7E
:0633B00015F0F0D7120039
:0A33B600006A0EAEE4EF19F00D6C92
:1033C0000E1EE86A0E22001E09AEECEF19F0086C22
:1033D000091EE86A0922001E3CEC1AF009BEFCEF47
:1033E00019F000AE000C086C091EE86A0922046C92
:1033F000051EE86A0522000C00BEF3EF19F00188F3
:02340000FF0CBF
:0E340200056A046A036A026A200EE76ED8901B
:1034100006360736083609360236033604360536D0
:103420000B50025C0C5003580D5004580E500558B8
:1034300009E30B50025E0C50035A0D50045A0E5013
:0A344000055A062AE72EE4D7120011
:06344A00D9CFE6FFDACF46
:10345000E6FFE1CFD9FFE2CFDAFFACAC04D0AC900D
:10346000000192B3AC80FD0EDB50AD6EE552E5CFAE
:08347000DAFFE7CFD9FF1200DB
:08347800056A046A100EE76EFC
:10348000D89008360936043605360D50045C0E50C7
:10349000055805E30D50045E0E50055A082AE72E24
:0434A000F0D712004F
:0C34A400FF0EE350146E480E01D04C0ED9
:1034B000E76EE72EFED7E76AE72EFED7142EF7D782
:0434C00000001200F6
:0C34C400000EF36E00EE00F0080E01D8C0
:1034D0001200EA6002D0EE6AFCD7F350E9601200F5
:0434E000EE6AFCD7BD
:0C34E40013EE00F023EE00F0F86A019CEB
:1034F0005EEC19F08BEC1AF0EFEC11F0FBD7120038
:10350000FF0EE350E84E1200000000D000D000D0C3
:06351000E82EFAD71200BC
:023516001200A1
:0235180012009F
:01351A0008A8
:05351B0000B230AC30ED
:04352000A030973010
:0C3524000100000000007E316D31002627
:0335300031213115
:020000040030CA
:0100000024DB
:010001000EF0
:00000001FF
